:100000000C945C000C946E000C946E000C946E00CA
:100010000C946E000C946E000C946E000C946E00A8
:100020000C946E000C946E000C946E000C946E0098
:100030000C946E000C946E000C946E000C946E0088
:100040000C94FA000C946E000C946E000C946E00EC
:100050000C946E000C946E000C946E000C946E0068
:100060000C946E000C946E00000000080002010069
:100070000003040700000000000000000000000072
:10008000250028002B0000000000240027002A0083
:10009000040404040404040402020202020203032E
:1000A0000303030301020408102040800102040836
:1000B000102001020408102011241FBECFEFD8E049
:1000C000DEBFCDBF21E0A0E0B1E001C01D92AD30A8
:1000D000B207E1F70E9444010C9483020C940000E3
:1000E00090E0FC01EC55FF4F249180579F4FFC019D
:1000F0008491882399F090E0880F991FFC01EA57BA
:10010000FF4FA591B491FC01E458FF4F8591949164
:100110008FB7F894EC91E22BEC938FBF089590E0A9
:10012000FC01E859FF4F2491FC01EC55FF4F34913D
:10013000FC01E057FF4FE491EE23C9F0222339F090
:10014000233001F1A8F4213019F1223029F1F0E037
:10015000EE0FFF1FE458FF4FA591B4918FB7F894AD
:10016000EC91611126C030953E233C938FBF0895DA
:100170002730A9F02830C9F0243049F78091800059
:100180008F7D03C0809180008F7780938000DFCFC8
:1001900084B58F7784BDDBCF84B58F7DFBCF809115
:1001A000B0008F778093B000D2CF8091B0008F7D68
:1001B000F9CF3E2BDACF0F931F93CF93DF93162FF8
:1001C000D42FC22F682F8DE00E948F00612F8CE00A
:1001D0000E948F006D2F8BE00E948F006C2F89E0B2
:1001E0000E948F00602F8AE0DF91CF911F910F91C5
:1001F0000C948F001F920F920FB60F9211242F9321
:100200003F938F939F93AF93BF93809109019091F8
:100210000A01A0910B01B0910C013091080123E07B
:10022000230F2D3758F50196A11DB11D209308010C
:100230008093090190930A01A0930B01B0930C01E4
:100240008091040190910501A0910601B0910701F0
:100250000196A11DB11D8093040190930501A09307
:100260000601B0930701BF91AF919F918F913F918C
:100270002F910F900FBE0F901F90189526E8230F17
:100280000296A11DB11DD2CF789484B5826084BD41
:1002900084B5816084BD85B5826085BD85B581608A
:1002A00085BD80916E00816080936E001092810008
:1002B00080918100826080938100809181008160C3
:1002C0008093810080918000816080938000809184
:1002D000B10084608093B1008091B0008160809310
:1002E000B00080917A00846080937A0080917A00D7
:1002F000826080937A0080917A00816080937A0096
:1003000080917A00806880937A001092C1008DE01D
:100310000E9470008CE00E9470008BE00E947000D0
:1003200089E00E9470008AE00E9470008CE2482EF2
:1003300055245394612C712CC0E0D0E092E0A92E9A
:10034000B12C88248394912C8FB7F894C090090124
:10035000D0900A01E0900B01F0900C018FBF8091CA
:100360000201909103018130910509F449C040F0E8
:10037000029709F467C0209739F30E940000E4CF88
:1003800001E020E040E060E081E00E94DB0080913D
:10039000000190910101A7019601281B390B410929
:1003A0005109DA01C901883B9B40A105B10540F024
:1003B0009092030180920201D0920101C09200014B
:1003C0008091000190910101A7019601281B390B32
:1003D00041095109DA01C9018C3D9540A105B105DA
:1003E00050F2C701B601A30192010E946102022FDF
:1003F000017020E040E060E081E00E94DB00BBCFC4
:1004000000E021E040E061E080E00E94DB008091BC
:10041000000190910101A7019601281B390B4109A8
:100420005109DA01C90188359240A105B10508F4E6
:10043000A2CFB0920301A0920201D0920101C0921A
:10044000000199CF00E021E041E060E080E00E94FF
:10045000DB008091000190910101A7019601281B0A
:10046000390B41095109DA01C901883B9B40A105BB
:10047000B10540F01092030110920201D0920101E7
:10048000C09200018091000190910101A7019601A5
:10049000281B390B41095109DA01C9018C3D9540EE
:1004A000A105B10508F467CFC701B601A301920108
:1004B0000E946102422F417000E021E060E080E094
:1004C0009CCFA1E21A2EAA1BBB1BFD010DC0AA1FC7
:1004D000BB1FEE1FFF1FA217B307E407F50720F0AD
:1004E000A21BB30BE40BF50B661F771F881F991F28
:1004F0001A9469F760957095809590959B01AC0171
:0A050000BD01CF010895F894FFCF6C
:00000001FF
