:020000040000FA
:100000000C9458000C9480000C9480000C94800098
:100010000C9480000C9480000C9480000C94800060
:100020000C9480000C9480000C9480000C94800050
:100030000C9480000C9480000C9480000C94800040
:100040000C9437050C9480000C9480000C94800074
:100050000C9480000C9480000C9480000C94800020
:100060000C9481050C9480000000000025002800FD
:100070002B00040404040404040402020202020229
:10008000030303030303010204081020408001025C
:1000900004081020010204081020000000080002DB
:1000A0000100000304070000000000000000A0069B
:1000B00011241FBECFEFD8E0DEBFCDBF11E0A0E01E
:1000C000B1E0EEECFFE002C005900D92A436B1075E
:1000D000D9F722E0A4E6B1E001C01D92AF33B20728
:1000E000E1F710E0C8E5D0E004C02197FE010E94CE
:1000F000DF07C735D107C9F70E94C0060C94E50792
:100100000C94000090E0FC01E656FF4F2491FC01A6
:10011000EA57FF4F3491FC01EE58FF4FE491EE2374
:10012000C9F0222339F0233001F1A8F4213019F16C
:10013000223029F1F0E0EE0FFF1FE859FF4FA591A3
:10014000B4918FB7F894EC91611126C030953E239D
:100150003C938FBF08952730A9F02830C9F0243090
:1001600049F7809180008F7D03C0809180008F7758
:1001700080938000DFCF84B58F7784BDDBCF84B5DB
:100180008F7DFBCF8091B0008F778093B000D2CF6E
:100190008091B0008F7DF9CF3E2BDACF3FB7F89436
:1001A0008091230290912402A0912502B091260211
:1001B00026B5A89B05C02F3F19F00196A11DB11DC2
:1001C0003FBFBA2FA92F982F8827BC01CD01620FFE
:1001D000711D811D911D42E0660F771F881F991FB9
:1001E0004A95D1F708958F929F92AF92BF92CF9286
:1001F000DF92EF92FF924B015C010E94CE006B01F7
:100200007C010E94CE006C197D098E099F09683E11
:10021000734081059105A8F321E0821A9108A10895
:10022000B10888EEC80E83E0D81EE11CF11C8114D1
:100230009104A104B10429F7FF90EF90DF90CF90D3
:10024000BF90AF909F908F90089508950895AF92BA
:10025000BF92CF92DF92EF92FF920F931F93CF93B3
:10026000DF936C017B018B01040F151FEB015E0115
:10027000AE18BF08C017D10759F06991D601ED91AA
:10028000FC910190F081E02DC6010995892B79F749
:10029000C501DF91CF911F910F91FF90EF90DF90FB
:1002A000CF90BF90AF9008952091CC01260F3327B7
:1002B000331F21323105ECF42091F001FC0190E074
:1002C00080E0243069F082E00895A091CC01219172
:1002D000AC0144555E4FA40FB52FB11D2C93019670
:1002E000861798F38091CC01680F6093CC0180E071
:1002F000089581E008951092F00181E08093F20169
:100300001092F10161E082E10E94820061E083E1EC
:100310000E948200E9EBF0E080818E7F8083808103
:100320008D7F808388E48093B80085E48093BC004F
:100330000895CF93DF9391E09093AB018823B9F0B8
:10034000C091B800D091BA008091BC008A7B8093A4
:10035000BC0060E082E10E94820060E083E10E94D4
:1003600082000E947B01D093BA00C093B800DF9155
:10037000CF9108950895E0911D0280911C02E81725
:1003800030F4F0E0EA57FE4F808190E008958FEF5F
:100390009FEF089590911D0280911C022FEF3FEF77
:1003A000981748F4E92FF0E0EA57FE4F208130E03B
:1003B0009F5F90931D02C901089580911C02909146
:1003C0001D02891B990B0895CF92DF92EF92FF9245
:1003D0000F931F93CF93DF937C01CB018A01209170
:1003E0008501222389F0EB016B01C40ED51ECC15CB
:1003F000DD0569F06991D701ED91FC910190F081E3
:10040000E02DC7010995F3CF642F0E945401C80164
:10041000DF91CF911F910F91FF90EF90DF90CF90E0
:100420000895CF93DF931F92CDB7DEB769832091F4
:1004300085012223F9F020911A02203258F021E0A0
:1004400030E0FC013383228390E080E00F90DF9165
:10045000CF91089580911B02E82FF0E0EB59FE4FF9
:10046000998190838F5F80931B0280931A0281E0B1
:1004700090E0ECCF61E0CE0101960E945401F7CFED
:10048000CF92DF92EF92FF920F931F93CF93DF9360
:10049000FC01C48121E020938501C0936401109286
:1004A0001B0210921A028385682B87E292E00E9459
:1004B0001102D0911A02D13208F092C00E94CE00EF
:1004C0006B017C018091F001811165C082E0809315
:1004D000F00181E08093F2018FEF8093EF011092A1
:1004E0001402D0931302A5E6B1E0E3EFF1E080E05F
:1004F000D81385C01092150280911502CC0FC82B1D
:10050000C09315028091F101813009F07CC01092F6
:10051000F1010E94CE006B017C0180911502809355
:10052000BB008091A7019091A801A091A901B09171
:10053000AA01892B8A2B8B2B99F00E94CE00009167
:10054000A7011091A8012091A9013091AA016C196D
:100550007D098E099F090617170728073907E0F15B
:100560008091BC0083FDD9CF85EC8093BC000E94B4
:10057000CE006B017C018091F001823009F445C00E
:100580008091EF018F3F61F18091EF01803241F165
:100590008091EF0125C08091A7019091A801A091C1
:1005A000A901B091AA01892B8A2B8B2B09F48ACF40
:1005B0000E94CE000091A7011091A8012091A901ED
:1005C0003091AA016C197D098E099F09061717073A
:1005D0002807390708F076CF8091A6010E9499017B
:1005E00010921B0210921A0210928501DF91CF9196
:1005F0001F910F91FF90EF90DF90CF9008959D9104
:1006000091938F5F75CF85EEB0CF8091A7019091C8
:10061000A801A091A901B091AA01892B8A2B8B2B4B
:1006200009F4A9CF0E94CE000091A7011091A80162
:100630002091A9013091AA016C197D098E099F09A9
:10064000061717072807390708F095CFC5CF089573
:1006500090E080E008958F929F92AF92BF920F93A7
:100660001F93CF93DF93CDB7DEB7A1970FB6F89462
:10067000DEBF0FBECDBF19A2423008F44AE08E01A2
:100680000F5D1F4F842E912CB12CA12CA50194013C
:100690000E94BD07E62FB901CA01EA3044F5E05DCA
:1006A000D801EE938D01232B242B252B79F790E095
:1006B00080E0109769F0FD0101900020E9F7319783
:1006C000AF014A1B5B0BBD0183E392E00E9427014F
:1006D000A1960FB6F894DEBF0FBECDBFDF91CF91CC
:1006E0001F910F91BF90AF909F908F900895E95CFC
:1006F000D7CFFC0101900020E9F73197AF01481BEB
:10070000590BBC0183E392E00C94270185ED8093A3
:10071000BC008091A7019091A801A091A901B0917E
:10072000AA010796A11DB11D23E0B695A79597953F
:1007300087952A95D1F72091BC0024FD03C0109223
:10074000F00108954091A7015091A8016091A9017D
:100750007091AA01452B462B472B69F30097A10501
:10076000B10541F02AE22A95F1F700C00197A109ED
:10077000B109E1CF8091A6010C9499010F931F93C9
:10078000CF938C01C62F0E9440026C2F6460C80179
:100790000E9440026C2F6B7FC8010E94400283ECD4
:1007A00090E00197F1F7CF911F910F9108950F936A
:1007B0001F93CF93DF938C01D62FC42F607F642BC0
:1007C0000E94BE0380E1D89FB00111246C2BC801A8
:1007D000DF91CF911F910F910C94BE03CF93DF93C4
:1007E000CDB7DEB728970FB6F894DEBF0FBECDBFEA
:1007F00098E0E0E0F1E0DE01119601900D929A950B
:10080000E1F790913B02961708F46FEF262F30E046
:10081000220F331F41E050E04C0F5D1F240F351FA6
:10082000F9016081680F606840E083E392E02896F8
:100830000FB6F894DEBF0FBECDBFDF91CF910C9401
:10084000D70382E491E00E94790361E080E00E9496
:10085000EE038AE491E00C94790341E00E94D7030F
:1008600081E090E00895CF92DF92EF92FF921F9384
:10087000CF93DF93CDB7DEB7C054D1090FB6F8944C
:10088000DEBF0FBECDBF20E1FE01F196DF01822F5A
:100890001D928A95E9F794E099838AE08A838B8395
:1008A0008C838D834FE14E8381E18F838887898795
:1008B0003BE13A8735E13B878C878D878E878F8731
:1008C000888B898B53E15A8B5B8B3C8B3D8B39E159
:1008D0003E8B3F8B888F498F9A8F9B8F9C8F9D8FEC
:1008E0009E8F9F8F98A39EE199A38AA38BA38CA32D
:1008F0009DA32EA32FA328A79EE099A78AA78BA725
:100900008CA78DA78EA78FA798ABDE0111967D01CE
:1009100010E040E0612F606483E392E00E94D7031F
:100920006701B8E0CB0ED11CF70161917F0183E331
:1009300092E00E942D04EC14FD04B1F7185F10330F
:1009400041F760E080E00E94EE0310E0612F83E356
:1009500092E00E942D041F5F1630C1F7C05CDF4F8C
:100960000FB6F894DEBF0FBECDBFDF91CF911F91C0
:10097000FF90EF90DF90CF900895EF92FF920F934A
:100980001F93CF93DF93CDB7DEB764970FB6F8947C
:10099000DEBF0FBECDBF84E1E8E0F1E0DE011196DD
:1009A00001900D928A95E1F786E591E00E94790326
:1009B0007E018FE0E80EF11C8E010F5F1F4FF801E2
:1009C00061918F0141E083E392E00E94D7030E150D
:1009D0001F05A9F761E080E00E94EE03EE24E39496
:1009E000F12CEC0EFD1EF4E1EF0EF11CF80161910B
:1009F0008F0141E083E392E00E94D703E016F10605
:100A0000A9F764960FB6F894DEBF0FBECDBFDF9195
:100A1000CF911F910F91FF90EF90089589E591E09C
:100A20000E9479034AE062E170E080E090E00E9479
:100A30002B0360E086E00E94EE038DE591E00E94CA
:100A4000790342E062E170E080E090E00E942B03D5
:100A500061E080E00E94EE0380E691E00E9479036D
:100A600040E162E170E080E090E00C942B031F9283
:100A70000F920FB60F9211242F933F938F939F9352
:100A8000AF93BF9380911F0290912002A091210209
:100A9000B091220230911E0223E0230F2D3758F52A
:100AA0000196A11DB11D20931E0280931F029093F9
:100AB0002002A0932102B093220280912302909100
:100AC0002402A0912502B09126020196A11DB11D1C
:100AD0008093230290932402A0932502B0932602D0
:100AE000BF91AF919F918F913F912F910F900FBE2A
:100AF0000F901F90189526E8230F0296A11DB11D97
:100B0000D2CF1F920F920FB60F9211242F933F93C3
:100B10004F935F936F937F938F939F93AF93BF9305
:100B2000EF93FF938091B900887F803609F44AC023
:100B3000F0F5883209F4A7C018F5803109F49BC09C
:100B4000B8F4882309F4F9C0883009F494C0FF91FF
:100B5000EF91BF91AF919F918F917F916F915F9135
:100B60004F913F912F910F900FBE0F901F901895AE
:100B7000883109F488C0803251F78093EF0114C0A6
:100B8000803409F49DC040F48033B9F38833F9F61A
:100B90008093EF0185ECB0C0803509F485C08835BD
:100BA00009F496C0883499F60E948603D0CF88391C
:100BB00009F48CC038F5883729F050F4883611F0E4
:100BC000803729F683E08093F0011092EE0157C040
:100BD000883809F47BC0803919F0803809F0B7CF24
:100BE0008091EE01803208F071C0E091EE0181E069
:100BF0008E0F8093EE018091BB00F0E0E253FE4F38
:100C000080833DC0803B39F0E0F4803A09F479C03C
:100C1000883A09F09CCF84E08093F0011092CD01D6
:100C20001092CC01E0911802F0911902099580917F
:100C3000CC0181110FC081E08093CC011092AC01F6
:100C400009C0803C09F4A6CF883C09F4A3CF883BB7
:100C500009F07DCFE091CD0181E08E0F8093CD0131
:100C6000F0E0E455FE4F80818093BB009091CD0170
:100C70008091CC0129C0809115028093BB0085EC46
:100C80008093BC0064CF9091140280911302981756
:100C900058F5E091140281E08E0F80931402F0E089
:100CA000ED50FE4F8081E9CFE091140281E08E0F7C
:100CB000809314028091BB00F0E0ED50FE4F8083E2
:100CC00090911402809113029817C8F285E8D8CF4A
:100CD000E091140281E08E0F809314028091BB009A
:100CE000F0E0ED50FE4F80838091F20181115CCFE6
:100CF00081E08093F10184EA8093BC001092F001BE
:100D000026CF85EC8093BC001092F0018091EE011B
:100D1000803230F4E091EE01F0E0E253FE4F1082B9
:100D20006091EE0170E0E0911602F09117028EECF6
:100D300091E009951092EE010ACF1092EF0134CFA5
:100D4000E7E2F2E01382128288EE93E0A0E0B0E0E6
:100D500084839583A683B78388E291E0918380831F
:100D6000E3E3F2E0138212828AE391E091838083CD
:100D700080E2848380E1818782E082871386089500
:100D8000789484B5826084BD84B5816084BD85B566
:100D9000826085BD85B5816085BD80916E00816072
:100DA00080936E0010928100809181008260809318
:100DB000810080918100816080938100809180001A
:100DC0008160809380008091B10084608093B10045
:100DD0008091B00081608093B00080917A0084603F
:100DE00080937A0080917A00826080937A0080916B
:100DF0007A00816080937A0080917A008068809385
:100E00007A001092C10010921D0210921C021092E2
:100E10001B0210921A020E947B0185E291E09093DE
:100E200019028093180286E291E090931702809352
:100E300016021092380280913D02823018F098E03C
:100E40009093380280933B0262E370E080E090E090
:100E50000E94F30060913E0283E392E00E94400210
:100E600068EE73E080E090E00E94F30060E383E3CB
:100E700092E00E94BE03CBE4D6E4CE010197F1F7E5
:100E800060E383E392E00E94BE032197F1F760E301
:100E900083E392E00E94BE0383E592E00197F1F7BD
:100EA00060E283E392E00E94BE03609138026062D8
:100EB00040E083E392E00E94D70384E0809339020C
:100EC00040E06CE083E392E00E94D70340E061E001
:100ED00083E392E00E94D703CBE3DFE1CE010197E9
:100EE000F1F782E080933A0240E066E083E392E02B
:100EF0000E94D70340E062E083E392E00E94D703C0
:100F00002197F1F788E080933E0260E083E392E06E
:100F10000E94400260913902862F846080933902DA
:100F20006C6040E083E392E00E94D70304E211E0AA
:100F30008BE3E82E8FE1F82E90E0C92E90E0D92EB9
:100F4000CCE1D1E0E991F991099560ED77E080E09D
:100F500090E00E94F30040E061E083E392E00E94B1
:100F6000D703C7010197F1F70C171D0759F7C114F3
:100F7000D10431F30E940000E3CFA1E21A2EAA1B94
:100F8000BB1BFD010DC0AA1FBB1FEE1FFF1FA21739
:100F9000B307E407F50720F0A21BB30BE40BF50B36
:100FA000661F771F881F991F1A9469F760957095BF
:100FB000809590959B01AC01BD01CF010895EE0F86
:100FC000FF1F0590F491E02D0994F894FFCF0000E5
:100FD000400014005400322E373138323831383264
:100FE000383435393034353233352104BD040E05FB
:100FF0003304000000001102E4012803BA01DD01FE
:10100000CA01BB01000000002D04270128032703AB
:101010004B4E2D33323142004B686F6D6120442EB0
:10102000204D2E00653A0031303A00323A00313618
:021030003A0084
:107E0000112484B714BE81FFF0D085E080938100F7
:107E100082E08093C00088E18093C10086E0809377
:107E2000C20080E18093C4008EE0C9D0259A86E02C
:107E300020E33CEF91E0309385002093840096BBD3
:107E4000B09BFECF1D9AA8958150A9F7CC24DD24C4
:107E500088248394B5E0AB2EA1E19A2EF3E0BF2EE7
:107E6000A2D0813461F49FD0082FAFD0023811F036
:107E7000013811F484E001C083E08DD089C08234E0
:107E800011F484E103C0853419F485E0A6D080C0E4
:107E9000853579F488D0E82EFF2485D0082F10E0AE
:107EA000102F00270E291F29000F111F8ED06801E7
:107EB0006FC0863521F484E090D080E0DECF843638
:107EC00009F040C070D06FD0082F6DD080E0C81688
:107ED00080E7D80618F4F601B7BEE895C0E0D1E017
:107EE00062D089930C17E1F7F0E0CF16F0E7DF06D8
:107EF00018F0F601B7BEE89568D007B600FCFDCFD4
:107F0000A601A0E0B1E02C9130E011968C91119780
:107F100090E0982F8827822B932B1296FA010C0160
:107F200087BEE89511244E5F5F4FF1E0A038BF0790
:107F300051F7F601A7BEE89507B600FCFDCF97BE46
:107F4000E89526C08437B1F42ED02DD0F82E2BD052
:107F50003CD0F601EF2C8F010F5F1F4F84911BD097
:107F6000EA94F801C1F70894C11CD11CFA94CF0C13
:107F7000D11C0EC0853739F428D08EE10CD085E9AC
:107F80000AD08FE07ACF813511F488E018D01DD067
:107F900080E101D065CF982F8091C00085FFFCCF94
:107FA0009093C60008958091C00087FFFCCF809118
:107FB000C00084FD01C0A8958091C6000895E0E648
:107FC000F0E098E1908380830895EDDF803219F02E
:107FD00088E0F5DFFFCF84E1DECF1F93182FE3DFCA
:107FE0001150E9F7F2DF1F91089580E0E8DFEE27F6
:047FF000FF270994CA
:027FFE00040479
:00000001FF
