:100000000C945C000C9479000C9479000C947900A9
:100010000C9479000C9479000C9479000C9479007C
:100020000C9479000C9479000C9479000C9479006C
:100030000C9479000C9479000C9479000C9479005C
:100040000C943D010C9479000C9479000C94790087
:100050000C9479000C9479000C9479000C9479003C
:100060000C9479000C947900000000080002010053
:100070000003040700000000000000000000000072
:10008000250028002B0000000000240027002A0083
:10009000040404040404040402020202020203032E
:1000A0000303030301020408102040800102040836
:1000B000102001020408102011241FBECFEFD8E049
:1000C000DEBFCDBF11E0A0E0B1E0ECE6F4E002C09D
:1000D00005900D92AA33B107D9F721E0AAE3B1E068
:1000E00001C01D92A334B207E1F70E9487010C946E
:1000F00034020C94000090E0FC01EC55FF4F249179
:1001000080579F4FFC018491882399F090E0880FDD
:10011000991FFC01EA57FF4FA591B491FC01E458E7
:10012000FF4F859194918FB7F894EC91E22BEC936B
:100130008FBF089590E0FC01E859FF4F2491FC0126
:10014000EC55FF4F3491FC01E057FF4FE491EE2353
:10015000C9F0222339F0233001F1A8F4213019F13C
:10016000223029F1F0E0EE0FFF1FE458FF4FA59178
:10017000B4918FB7F894EC91611126C030953E236D
:100180003C938FBF08952730A9F02830C9F0243060
:1001900049F7809180008F7D03C0809180008F7728
:1001A00080938000DFCF84B58F7784BDDBCF84B5AB
:1001B0008F7DFBCF8091B0008F778093B000D2CF3E
:1001C0008091B0008F7DF9CF3E2BDACF3FB7F89406
:1001D00080913F0190914001A0914101B091420175
:1001E00026B5A89B05C02F3F19F00196A11DB11D92
:1001F0003FBFBA2FA92F982F8827BC01CD01620FCE
:10020000711D811D911D42E0660F771F881F991F88
:100210004A95D1F708958F929F92AF92BF92CF9255
:10022000DF92EF92FF924B015C010E94E6006B01AE
:100230007C010E94E6006C197D098E099F09683EC9
:10024000734081059105A8F321E0821A9108A10865
:10025000B10888EEC80E83E0D81EE11CF11C8114A1
:100260009104A104B10429F7FF90EF90DF90CF90A3
:10027000BF90AF909F908F9008951F920F920FB6EE
:100280000F9211242F933F938F939F93AF93BF931C
:1002900080913B0190913C01A0913D01B0913E01C4
:1002A00030913A0123E0230F2D3758F50196A11D17
:1002B000B11D20933A0180933B0190933C01A093A0
:1002C0003D01B0933E0180913F0190914001A0918A
:1002D0004101B09142010196A11DB11D80933F01E2
:1002E00090934001A0934101B0934201BF91AF911F
:1002F0009F918F913F912F910F900FBE0F901F9064
:10030000189526E8230F0296A11DB11DD2CF78942F
:1003100084B5826084BD84B5816084BD85B582600A
:1003200085BD85B5816085BD80916E0081608093BB
:100330006E00109281008091810082608093810024
:100340008091810081608093810080918000816034
:10035000809380008091B10084608093B10080918F
:10036000B00081608093B00080917A0084608093B7
:100370007A0080917A00826080937A0080917A007E
:10038000816080937A0080917A00806880937A00FF
:100390001092C100C4E2D1E0888122960E947B00C5
:1003A00081E0C233D807C1F788E00E947B0089E072
:1003B0000E947B008AE00E947B008BE00E947B0011
:1003C00020E0C22E20E0D22EC2E3D1E09CE1E92E53
:1003D00091E0F92E9880229660E0892D0E949A0083
:1003E00084E2A82E81E0B82E10E000E0D5018C91C7
:1003F000B2E0AB0EB11CD701ED91FC91E00FF11F03
:1004000060810E949A000F5F1F4F0730110571F73E
:1004100064E670E080E090E00E940B0104E211E0ED
:10042000F80180810E5F1F4F60E00E949A00F1E0AA
:1004300002331F07A9F761E0892D0E949A006FE03F
:1004400070E080E090E00E940B0182E0E80EF11C79
:1004500091E0CA33D90709F0BDCFC114D10409F422
:0C046000B3CF0E940000B0CFF894FFCF93
:10046C000100010101010101000000010101010174
:10047C0001010101010101010001010115010E0140
:10048C000701000101000200030004000500060042
:0A049C000700080009000A000B0029
:00000001FF
