:020000040000FA
:100000000C9461000C947E000C947E000C947E0095
:100010000C947E000C947E000C947E000C947E0068
:100020000C947E000C947E000C947E000C947E0058
:100030000C947E000C947E000C947E000C947E0048
:100040000C9462010C947E000C947E000C947E0053
:100050000C947E000C947E000C947E000C947E0028
:100060000C947E000C947E0000000000230026000B
:10007000290000000000240027002A0000000000E2
:10008000250028002B0004040404040404040202D4
:100090000202020203030303030301020408102007
:1000A0004080010204081020010204081020000012
:1000B0000008000201000003040700000000000027
:1000C000000011241FBECFEFD8E0DEBFCDBF11E08E
:1000D000A0E0B1E0EAE4F6E002C005900D92A030A5
:1000E000B107D9F721E0A0E0B1E001C01D92A9302D
:1000F000B207E1F70E94AC010C9423030C940000BA
:10010000833081F028F4813099F08230A9F008958D
:100110008730A9F08830C9F08430B1F48091800034
:100120008F7D03C0809180008F7780938000089539
:1001300084B58F7784BD089584B58F7DFBCF809182
:10014000B0008F778093B00008958091B0008F7DCC
:10015000F9CF1F93CF93DF93282F30E0F901E255B9
:10016000FF4F8491F901E656FF4FD491F901EA5708
:10017000FF4FC491CC23A9F0162F81110E9480005B
:10018000EC2FF0E0EE0FFF1FE458FF4FA591B49164
:100190008FB7F894EC91111108C0D095DE23DC9351
:1001A0008FBFDF91CF911F910895DE2BF8CFCF93B2
:1001B000DF9390E0FC01E656FF4F24918A579F4F52
:1001C000FC0184918823D1F090E0880F991FFC01F5
:1001D000EE58FF4FA591B491FC01E458FF4FC59133
:1001E000D49161110EC09FB7F8948C91E22FE095E5
:1001F0008E238C932881E223E8839FBFDF91CF91E8
:1002000008958FB7F894EC91E22BEC938FBFF6CF63
:100210003FB7F8948091050190910601A0910701E4
:10022000B091080126B5A89B05C02F3F19F0019693
:10023000A11DB11D3FBFBA2FA92F982F8827BC0140
:10024000CD01620F711D811D911D42E0660F771F68
:10025000881F991F4A95D1F708958F929F92AF9268
:10026000BF92CF92DF92EF92FF920E9408014B0162
:100270005C0185E0C82ED12CE12CF12C0E940801F4
:10028000681979098A099B09683E734081059105BF
:10029000A8F321E0C21AD108E108F10888EE880E1F
:1002A00083E0981EA11CB11CC114D104E104F10427
:1002B00029F7FF90EF90DF90CF90BF90AF909F9085
:1002C0008F9008951F920F920FB60F9211242F93C3
:1002D0003F938F939F93AF93BF9380910101909130
:1002E0000201A0910301B09104013091000123E0CB
:1002F000230F2D3758F50196A11DB11D2093000144
:100300008093010190930201A0930301B093040133
:100310008091050190910601A0910701B09108011B
:100320000196A11DB11D8093050190930601A09334
:100330000701B0930801BF91AF919F918F913F91B9
:100340002F910F900FBE0F901F90189526E8230F46
:100350000296A11DB11DD2CF789484B5826084BD70
:1003600084B5816084BD85B5826085BD85B58160B9
:1003700085BD80916E00816080936E001092810037
:1003800080918100826080938100809181008160F2
:1003900080938100809180008160809380008091B3
:1003A000B10084608093B1008091B000816080933F
:1003B000B00080917A00846080937A0080917A0006
:1003C000826080937A0080917A00816080937A00C5
:1003D00080917A00806880937A001092C10061E079
:1003E00089E00E94D70060E08EE00E94D70060E0C4
:1003F00084E00E94D70061E082E00E94D70061E0C3
:1004000083E00E94D7009EE9292E90E0392E2AE849
:10041000822E20E0922E412C34E0532E612C712C40
:1004200047EBA42E40E0B42E00E010E0E2EBF0E059
:100430008491F101C491F401D491DD2309F49BC0AE
:1004400081110E948000ED2FF0E0EE0FFF1FE859B0
:10045000FF4FA591B4918C91C82309F48CC060E042
:1004600083E00E94A90061E082E00E94A900F0E41C
:10047000F0937C0080917A00806480937A00809170
:100480007A0086FDFCCF2091780030917900032E10
:10049000000C440B550B345041095109AFEFB0E04B
:1004A0000E94E702A30192010E94C80269017A0139
:1004B000F094E094D094C094C11CD11CE11CF11CB8
:1004C000CC2DDD2D61E089E00E94D700209711F44A
:1004D00060E004C0CF3FD10529F461E089E00E94CB
:1004E000A90021C0F5018491833059F140F4813095
:1004F000B1F0823009F1C038D1057CF7E9CF8730FF
:1005000051F1883081F18430B1F7809180008062B0
:1005100080938000D0928B00C0928A0004C084B582
:10052000806884BDC7BC0E942D010115110509F426
:100530007DCF0E9400007ACF84B5806284BDC8BCA4
:10054000F2CF80918000806880938000D0928900F3
:10055000C0928800E8CF8091B00080688093B0009E
:10056000C092B300E0CF8091B00080628093B00071
:10057000C092B400D8CF60E082E00E94A90061E0A0
:1005800083E00E94A90061E089E00E94D700A0CF2B
:10059000052E97FB1EF400940E94DF0257FD07D042
:1005A0000E94F20207FC03D04EF40C94DF02509537
:1005B0004095309521953F4F4F4F5F4F089590954F
:1005C0008095709561957F4F8F4F9F4F08950E9442
:1005D0001403A59F900DB49F900DA49F800D911DB5
:1005E00011240895A1E21A2EAA1BBB1BFD010DC008
:1005F000AA1FBB1FEE1FFF1FA217B307E407F507D3
:1006000020F0A21BB30BE40BF50B661F771F881FAE
:10061000991F1A9469F760957095809590959B0144
:10062000AC01BD01CF010895A29FB001B39FC001ED
:10063000A39F700D811D1124911DB29F700D811D0E
:0A0640001124911D0895F894FFCFD6
:107E0000112484B714BE81FFF0D085E080938100F7
:107E100082E08093C00088E18093C10086E0809377
:107E2000C20080E18093C4008EE0C9D0259A86E02C
:107E300020E33CEF91E0309385002093840096BBD3
:107E4000B09BFECF1D9AA8958150A9F7CC24DD24C4
:107E500088248394B5E0AB2EA1E19A2EF3E0BF2EE7
:107E6000A2D0813461F49FD0082FAFD0023811F036
:107E7000013811F484E001C083E08DD089C08234E0
:107E800011F484E103C0853419F485E0A6D080C0E4
:107E9000853579F488D0E82EFF2485D0082F10E0AE
:107EA000102F00270E291F29000F111F8ED06801E7
:107EB0006FC0863521F484E090D080E0DECF843638
:107EC00009F040C070D06FD0082F6DD080E0C81688
:107ED00080E7D80618F4F601B7BEE895C0E0D1E017
:107EE00062D089930C17E1F7F0E0CF16F0E7DF06D8
:107EF00018F0F601B7BEE89568D007B600FCFDCFD4
:107F0000A601A0E0B1E02C9130E011968C91119780
:107F100090E0982F8827822B932B1296FA010C0160
:107F200087BEE89511244E5F5F4FF1E0A038BF0790
:107F300051F7F601A7BEE89507B600FCFDCF97BE46
:107F4000E89526C08437B1F42ED02DD0F82E2BD052
:107F50003CD0F601EF2C8F010F5F1F4F84911BD097
:107F6000EA94F801C1F70894C11CD11CFA94CF0C13
:107F7000D11C0EC0853739F428D08EE10CD085E9AC
:107F80000AD08FE07ACF813511F488E018D01DD067
:107F900080E101D065CF982F8091C00085FFFCCF94
:107FA0009093C60008958091C00087FFFCCF809118
:107FB000C00084FD01C0A8958091C6000895E0E648
:107FC000F0E098E1908380830895EDDF803219F02E
:107FD00088E0F5DFFFCF84E1DECF1F93182FE3DFCA
:107FE0001150E9F7F2DF1F91089580E0E8DFEE27F6
:047FF000FF270994CA
:027FFE00040479
:00000001FF
