:020000040000FA
:100000000C9472000C949A000C949A000C949A0030
:100010000C949A000C949A000C949A000C949A00F8
:100020000C949A000C949A000C949A000C949A00E8
:100030000C949A000C949A000C949A000C949A00D8
:100040000C94E9060C949A000C9459070C9433070D
:100050000C949A000C949A000C949A000C949A00B8
:100060000C948B070C949A00005EBCE2613FDD8328
:10007000C29C7E20A3FD1F41009D23BE46DB65F888
:100080008C11AF32CA57E974000000080002010069
:100090000003040700000000000000000000000052
:1000A000250028002B0000000000240027002A0063
:1000B00000000000230026002900040404040404B6
:1000C0000404020202020202030303030303010207
:1000D00004081020408001020408102001020408D6
:1000E0001020AA0811241FBECFEFD8E0DEBFCDBF7D
:1000F00011E0A0E0B1E0EAEBFEE102C005900D9254
:10010000AC34B107D9F722E0ACE4B1E001C01D92F4
:10011000A63EB207E1F710E0C2E7D0E004C02197A5
:10012000FE010E94550FC137D107C9F70E947A0915
:100130000C945B0F0C94000090E0FC01E857FF4F1B
:100140002491FC01E253FF4F3491FC01E654FF4F30
:10015000E491EE23C9F0222339F0233001F1A8F411
:10016000213019F1223029F1F0E0EE0FFF1FE456A3
:10017000FF4FA591B4918FB7F894EC91611126C00F
:1001800030953E233C938FBF08952730A9F0283047
:10019000C9F0243049F7809180008F7D03C08091A1
:1001A00080008F7780938000DFCF84B58F7784BD08
:1001B000DBCF84B58F7DFBCF8091B0008F778093AC
:1001C000B000D2CF8091B0008F7DF9CF3E2BDACF37
:1001D0003FB7F89480910B0290910C02A0910D0210
:1001E000B0910E0226B5A89B05C02F3F19F00196CD
:1001F000A11DB11D3FBFBA2FA92F982F8827BC0181
:10020000CD01620F711D811D911D42E0660F771FA8
:10021000881F991F4A95D1F708958F929F92AF92A8
:10022000BF92CF92DF92EF92FF926B017C010E940E
:10023000E8004B015C01C114D104E104F104B9F000
:100240000E94E800681979098A099B09683E734091
:100250008105910580F321E0C21AD108E108F10877
:1002600088EE880E83E0981EA11CB11CE4CFFF909D
:10027000EF90DF90CF90BF90AF909F908F900895B8
:1002800008950895AF92BF92CF92DF92EF92FF92BE
:100290000F931F93CF93DF936C017B018B01040FAE
:1002A000151FEB015E01AE18BF08C017D10759F04A
:1002B0006991D601ED91FC910190F081E02DC6018C
:1002C0000995892B79F7C501DF91CF911F910F9186
:1002D000FF90EF90DF90CF90BF90AF900895FC011A
:1002E000538D448D252F30E0842F90E0821B930B9B
:1002F000541710F0CF96089501970895FC01918D41
:10030000828D981761F0A28DAE0FBF2FB11D5D9643
:100310008C91928D9F5F9F73928F90E008958FEFE5
:100320009FEF0895FC01918D828D981731F0828D99
:10033000E80FF11D858D90E008958FEF9FEF0895F0
:10034000FC01918D228D892F90E0805C9F4F821B54
:1003500091098F73992708958FE092E00E94A00180
:1003600021E0892B09F420E0822F089580E090E0BD
:10037000892B29F00E94AC0181110C940000089592
:10038000FC01A48DA80FB92FB11DA35ABF4F2C910A
:10039000848D90E001968F739927848FA689B78901
:1003A0002C93A089B1898C91837080648C93938DF8
:1003B000848D981306C00288F389E02D80818F7D9B
:1003C00080830895EF92FF920F931F93CF93DF9353
:1003D000EC0181E0888F9B8D8C8D98131AC0E88981
:1003E000F989808185FF15C09FB7F894EE89FF8950
:1003F0006083E889F98980818370806480839FBFEE
:1004000081E090E0DF91CF911F910F91FF90EF90ED
:100410000895F62E0B8D10E00F5F1F4F0F731127FD
:10042000E02E8C8D8E110CC00FB607FCFACFE88938
:10043000F989808185FFF5CFCE010E94C001F1CFFF
:10044000EB8DEC0FFD2FF11DE35AFF4FF0829FB7AC
:10045000F8940B8FEA89FB8980818062CFCFCF939C
:10046000DF93EC01888D8823B9F0AA89BB89E889DC
:10047000F9898C9185FD03C0808186FD0DC00FB682
:1004800007FCF7CF8C9185FFF2CF808185FFEDCF00
:10049000CE010E94C001E9CFDF91CF910895089568
:1004A00020918D01260F3327331F21323105ECF4C3
:1004B0002091D601FC0190E080E0243069F082E0D8
:1004C0000895A0918D012191AC0143595E4FA40F75
:1004D000B52FB11D2C930196861798F380918D014D
:1004E000680F60938D0180E0089581E00895109277
:1004F000D60181E08093D5011092B00161E082E1E4
:100500000E949C0061E083E10E949C00E9EBF0E026
:1005100080818E7F808380818D7F808388E480933B
:10052000B80085E48093BC000895CF93DF9391E0F9
:1005300090936C018823B9F0C091B800D091BA00B3
:100540008091BC008A7B8093BC0060E082E10E94C5
:100550009C0060E083E10E949C000E947702D0939F
:10056000BA00C093B800DF91CF9108950895E0914B
:10057000050280910402E81730F4F0E0E45BFE4FDE
:10058000808190E008958FEF9FEF0895909105028C
:10059000809104022FEF3FEF981748F4E92FF0E025
:1005A000E45BFE4F208130E09F5F90930502C9011C
:1005B00008958091040290910502891B990B08957A
:1005C000CF92DF92EF92FF920F931F93CF93DF931F
:1005D0007C01CB018A012091DC01222389F0EB010F
:1005E0006B01C40ED51ECC15DD0569F06991D701EC
:1005F000ED91FC910190F081E02DC7010995F3CFB9
:10060000642F0E945002C801DF91CF911F910F917A
:10061000FF90EF90DF90CF900895CF93DF931F92DC
:10062000CDB7DEB769832091DC012223F9F0209158
:100630000202203258F021E030E0FC0133832283B3
:1006400090E080E00F90DF91CF91089580910302B8
:10065000E82FF0E0E352FE4F998190838F5F809303
:1006600003028093020281E090E0ECCF61E0CE01D2
:1006700001960E945002F7CFCF92DF92EF92FF9245
:100680000F931F93CF93DF93FC01C48121E020934C
:10069000DC01C093FD0110920302109202028385D7
:1006A000682B8CEA92E00E940D03D0910202D132B5
:1006B00008F092C00E94E8006B017C018091D60195
:1006C000811165C082E08093D60181E08093D501DD
:1006D0008FEF8093D4011092D301D093D201ADED6E
:1006E000B1E0E2EBF1E080E0D81385C01092B101F7
:1006F0008091B101CC0FC82BC093B1018091B001A2
:10070000813009F07CC01092B0010E94E8006B01BA
:100710007C018091B1018093BB008091D8019091C0
:10072000D901A091DA01B091DB01892B8A2B8B2BA7
:1007300099F00E94E8000091D8011091D901209110
:10074000DA013091DB016C197D098E099F090617CA
:10075000170728073907E0F18091BC0083FDD9CF46
:1007600085EC8093BC000E94E8006B017C018091C5
:10077000D601823009F445C08091D4018F3F61F1E8
:100780008091D401803241F18091D40125C08091C3
:10079000D8019091D901A091DA01B091DB01892BA8
:1007A0008A2B8B2B09F48ACF0E94E8000091D80194
:1007B0001091D9012091DA013091DB016C197D098A
:1007C0008E099F09061717072807390708F076CF03
:1007D0008091D7010E9495021092030210920202AA
:1007E0001092DC01DF91CF911F910F91FF90EF905C
:1007F000DF90CF9008959D9191938F5F75CF85EE97
:10080000B0CF8091D8019091D901A091DA01B09137
:10081000DB01892B8A2B8B2B09F4A9CF0E94E800DE
:100820000091D8011091D9012091DA013091DB01BA
:100830006C197D098E099F090617170728073907C4
:1008400008F095CFC5CF90E080E00895DC0180E00E
:10085000615090F09D919827E92FEF70F0E0E859F2
:10086000FF4F2491E92FE295EF70F0E0E858FF4F39
:10087000E491822F8E27ECCF0895DC012C91119604
:10088000ED91FC91F8948181822B81839281322FAA
:1008900030959323928387E090E00197F1F781816F
:1008A0008323818383E290E00197F1F7908178942C
:1008B000EFECF0E03197F1F7922381E009F480E06A
:1008C0000895FC0190810180F281E02D292F20956F
:1008D00060FF14C0F8948281822382838181892BF6
:1008E0008183A3E2B0E01197F1F78281982B928384
:1008F000789487ED90E00197F1F70895F89482815C
:10090000822382838181892B8183AFEFB0E01197AD
:10091000F1F78281982B928378948FE090E0EBCF6F
:10092000DF92EF92FF920F931F93CF93DF93EC012F
:10093000D62EE42E08E010E0FF24F39461E08D2D24
:100940008F2109F460E0CE010E946104FF0C015088
:100950001109A1F7E11010C0F894E981FA819181A1
:100960008881809589238183E981FA8192818881B8
:100970008095892382837894DF91CF911F910F9185
:10098000FF90EF90DF900895EF92FF920F931F93E7
:10099000CF93DF938C017B0140E065E50E949004DA
:1009A000E70188E0E80EF11C699140E0C8010E946F
:1009B0009004CE15DF05C1F7DF91CF911F910F9104
:1009C000FF90EF900895FC0190810180F281E02D6D
:1009D000F8948181292F20958223818378943DE7A3
:1009E00043E050E0315029F1DA011197F1F78081AD
:1009F0008923C1F3F8948281822382838181892BA8
:100A000081837894ABE7B7E01197F1F7F89481818F
:100A100082238183A3E1B1E01197F1F780819823CC
:100A200081E009F080E07894E3E6F6E03197F1F7B1
:100A3000089580E00895AF92BF92CF92DF92EF9237
:100A4000FF920F931F93CF93DF938B01BC01809193
:100A5000CA029091CB020E94C40440E06EEB8091E8
:100A6000CA029091CB020E949004E801680189E0DB
:100A7000C80ED11CA090CA02B090CB0288E0E82E2C
:100A8000F12C10E001E0C5010E943D048111102B02
:100A9000000F81E0E81AF108B1F71993CC16DD06D2
:100AA00049F78091CA029091CB020E94E30491E041
:100AB000813009F090E0892FDF91CF911F910F9144
:100AC000FF90EF90DF90CF90BF90AF9008950F937D
:100AD0001F93CF93DF93CDB7DEB729970FB6F89466
:100AE000DEBF0FBECDBF8C018091CA029091CB02B8
:100AF0000E94E304811102C080E01FC0BE016F5F4D
:100B00007F4FC8010E941B058823B1F368E0CE0126
:100B100001960E94260499858913EECF8D818F332B
:100B2000B9F020F48F3141F789E007C08F3521F00B
:100B30008F3711F78CE001C08BE029960FB6F8943F
:100B4000DEBF0FBECDBFDF91CF911F910F910895F2
:100B50008AE0F3CFBF92CF92DF92EF92FF920F9392
:100B60001F93CF93DF93EC01B62EC72E8D85811195
:100B700005C0CE010E94E30481110EC01B861D86B4
:100B80001C8680E0DF91CF911F910F91FF90EF9035
:100B9000DF90CF90BF90089540E060EFCE010E94BB
:100BA000900401E0E12CD12C11E0CE010E943D0423
:100BB000F82ECE010E943D0491E0F91218C0813058
:100BC00099F51134D8F2DB86D11002C081E08D870F
:100BD0008B81882399F22396EB2DFC2DCF0108966B
:100BE00029912193E817F907D9F781E0CBCFEE2DB2
:100BF000F0E0F8120FC08B851817A0F4DE01AE0FDD
:100C0000BF1F13968C91802379F4F12C193008F4CE
:100C10001C87D12EEC0FFD1F8381902F9095892387
:100C200083830AC08113F1CFFE01EE0DF11D838194
:100C3000802B8383FF24F3946F2DCE010E946104E7
:100C40001F5F000F11F4E39401E087E08E1508F0B8
:100C5000ACCFB7CF0F931F93CF938C01C62F0E94B9
:100C60003C036C2F6460C8010E943C036C2F6B7FB7
:100C7000C8010E943C0383EC90E00197F1F7CF910B
:100C80001F910F9108950F931F93CF93DF938C01C2
:100C9000D62FC42F607F642B0E942A0680E1D89F44
:100CA000B00111246C2BC801DF91CF911F910F91DE
:100CB0000C942A0641E00E94430681E090E00895EA
:100CC000FC0101900020E9F73197AF01481B590B57
:100CD000BC0188EB92E00C9442018F929F92AF92FC
:100CE000BF920F931F93CF93DF93CDB7DEB7A1973A
:100CF0000FB6F894DEBF0FBECDBF19A2423008F484
:100D00004AE08E010F5D1F4F842E912CB12CA12C37
:100D1000A50194010E941F0FE62FB901CA01EA3014
:100D2000F4F4E05DD801EE938D01232B242B252BC9
:100D300079F790E080E0109719F0CD010E946006ED
:100D4000A1960FB6F894DEBF0FBECDBFDF91CF9155
:100D50001F910F91BF90AF909F908F900895E95C85
:100D6000E1CF85ED8093BC008091D8019091D901AD
:100D7000A091DA01B091DB010796A11DB11D23E01E
:100D8000B695A795979587952A95D1F72091BC00A0
:100D900024FD03C01092D60108954091D8015091CE
:100DA000D9016091DA017091DB01452B462B472B6D
:100DB00069F30097A105B10541F02AE22A95F1F700
:100DC00000C00197A109B109E1CF8091D7010C942E
:100DD00095021F920F920FB60F9211242F933F93FB
:100DE0008F939F93AF93BF938091070290910802D6
:100DF000A0910902B0910A023091060223E0230F6C
:100E00002D3758F50196A11DB11D20930602809340
:100E1000070290930802A0930902B0930A028091FE
:100E20000B0290910C02A0910D02B0910E0201965E
:100E3000A11DB11D80930B0290930C02A0930D0293
:100E4000B0930E02BF91AF919F918F913F912F91DF
:100E50000F900FBE0F901F90189526E8230F029653
:100E6000A11DB11DD2CF1F920F920FB60F92112468
:100E70002F933F934F935F936F937F938F939F93A2
:100E8000AF93BF93EF93FF938FE092E00E94C00176
:100E9000FF91EF91BF91AF919F918F917F916F9152
:100EA0005F914F913F912F910F900FBE0F901F9028
:100EB00018951F920F920FB60F9211242F938F93B4
:100EC0009F93EF93FF93E0911F02F09120028081A6
:100ED000E0912502F091260282FD1BC09081809155
:100EE00028028F5F8F7320912902821741F0E091D1
:100EF0002802F0E0E15FFD4F958F80932802FF917B
:100F0000EF919F918F912F910F900FBE0F901F9097
:100F100018958081F4CF1F920F920FB60F92112473
:100F20002F933F934F935F936F937F938F939F93F1
:100F3000AF93BF93EF93FF938091B900887F803682
:100F400009F44AC0F0F5883209F4A7C018F58031D9
:100F500009F49BC0B8F4882309F4F9C0883009F477
:100F600094C0FF91EF91BF91AF919F918F917F912D
:100F70006F915F914F913F912F910F900FBE0F9006
:100F80001F901895883109F488C0803251F78093FA
:100F9000D40114C0803409F49DC040F48033B9F307
:100FA0008833F9F68093D40185ECB0C0803509F41C
:100FB00085C0883509F496C0883499F60E94B10638
:100FC000D0CF883909F48CC038F5883729F050F42F
:100FD000883611F0803729F683E08093D60110928D
:100FE000AF0157C0883809F47BC0803919F08038C8
:100FF00009F0B7CF8091AF01803208F071C0E09165
:10100000AF0181E08E0F8093AF018091BB00F0E0D3
:10101000E157FE4F80833DC0803B39F0E0F4803AD9
:1010200009F479C0883A09F09CCF84E08093D60116
:1010300010928E0110928D01E0910002F091010258
:10104000099580918D0181110FC081E080938D0100
:1010500010926D0109C0803C09F4A6CF883C09F4C8
:10106000A3CF883B09F07DCFE0918E0181E08E0F08
:1010700080938E01F0E0E359FE4F80818093BB00A6
:1010800090918E0180918D0129C08091B101809352
:10109000BB0085EC8093BC0064CF9091D30180911C
:1010A000D201981758F5E091D30181E08E0F80931B
:1010B000D301F0E0EE54FE4F8081E9CFE091D301FF
:1010C00081E08E0F8093D3018091BB00F0E0EE545D
:1010D000FE4F80839091D3018091D2019817C8F27E
:1010E00085E8D8CFE091D30181E08E0F8093D301C2
:1010F0008091BB00F0E0EE54FE4F80838091D501DB
:1011000081115CCF81E08093B00184EA8093BC00C0
:101110001092D60126CF85EC8093BC001092D601A8
:101120008091AF01803230F4E091AF01F0E0E157FF
:10113000FE4F10826091AF0170E0E091FE01F091EE
:10114000FF018FE891E009951092AF010ACF10924C
:10115000D40134CFCF93DF93109212021092110278
:1011600088EE93E0A0E0B0E0809313029093140225
:10117000A0931502B09316022AE031E030931002DA
:1011800020930F0225EC30E030931C0220931B02C9
:1011900024EC30E030931E0220931D0220EC30E05E
:1011A0003093200220931F0221EC30E03093220282
:1011B0002093210222EC30E030932402209323027A
:1011C00026EC30E03093260220932502109228026C
:1011D0001092290210922A0210922B021092AF0252
:1011E0001092AE028093B0029093B102A093B2022B
:1011F000B093B3028CE191E09093AD028093AC0286
:1012000047ED50E0FA01649183EC90E0FC012491F9
:101210002223C1F030E0220F331FF901EA55FF4FBE
:10122000A591B491F901E456FF4FC591D4917FB7D0
:10123000F8943C91262F209532233C933881232328
:1012400028837FBFFA0144914093D802FC01849126
:10125000E82FF0E0EE0FFF1FE055FF4F85919491CE
:101260009093DA028093D9021092E3021092E50281
:101270001092E4021092E2021092E1021092E00257
:101280001092DF021092DE021092DD021092DC0258
:101290001092DB0288ED92E09093CB028093CA0219
:1012A0001092C8021092C9021092C40289E0809381
:1012B000C50281E08093C6028093C7021092D702D4
:1012C0001092D6021092BB021092BA028EE291E006
:1012D0009093B9028093B80280E28093BC0280E1CF
:1012E0008093C10282E08093C2021092C302DF9118
:1012F000CF910895CF93DF93CDB7DEB761970FB647
:10130000F894DEBF0FBECDBF789484B5826084BDF3
:1013100084B5816084BD85B5826085BD85B58160F9
:1013200085BD80916E00816080936E001092810077
:101330008091810082608093810080918100816032
:1013400080938100809180008160809380008091F3
:10135000B10084608093B1008091B000816080937F
:10136000B00080917A00846080937A0080917A0046
:10137000826080937A0080917A00816080937A0005
:1013800080917A00806880937A001092C100E09189
:101390001F02F091200282E08083E0911B02F09115
:1013A0001C021082E0911D02F0911E028FEC8083DE
:1013B00010922702E0912302F091240286E08083BC
:1013C000E0912102F0912202808180618083E0918E
:1013D0002102F0912202808188608083E0912102C5
:1013E000F0912202808180688083E0912102F09157
:1013F000220280818F7D8083E091CA02F091CB022E
:101400001386158614861286118610861782168218
:101410001582148213821092C8021092C90201E050
:10142000BE016F5F7F4F8091CA029091CB020E94F4
:10143000AA05882309F468C067E0CE0101960E94DE
:10144000260498858913ECCF8091C402811128C0AD
:101450008091CA029091CB020E94E304BE016F5FAB
:101460007F4F8091CA029091CB020E94C40440E059
:1014700064EB8091CA029091CB020E94900480910B
:10148000CA029091CB020E943D04182F8091CA029B
:101490009091CB020E94E304111102C00093C40298
:1014A0001091C5028981803109F475C2CE0101967F
:1014B0000E9467058117C0F48091C5028093C50220
:1014C0008091C8028F5F8093C8028981883231F091
:1014D000A8F4803119F0823209F0A2CF8091C902BC
:1014E0008F5F8093C9029CCF8981803111F48CE099
:1014F000E5CFCE0101960E946705E0CF8B3371F3F3
:10150000823409F08DCFEACF1092050210920402C6
:1015100010920302109202020E94770280E491E08E
:10152000909301028093000281E491E09093FF0187
:101530008093FE011092BD028091C202823018F0A9
:1015400098E09093BD028093C00262E370E080E077
:1015500090E00E940D016091C30288EB92E00E942E
:101560003C0368EE73E080E090E00E940D0160E3D0
:1015700088EB92E00E942A060BE416E4C80101976A
:10158000F1F760E388EB92E00E942A06C801019718
:10159000F1F760E388EB92E00E942A0683E592E08F
:1015A0000197F1F760E288EB92E00E942A066091D1
:1015B000BD02606240E088EB92E00E94430684E056
:1015C0008093BE0240E06CE088EB92E00E9443060C
:1015D00040E061E088EB92E00E9443060BE31FE1EC
:1015E000C8010197F1F782E08093BF0240E066E016
:1015F00088EB92E00E94430640E062E088EB92E0D4
:101600000E944306C8010197F1F788E08093C30266
:1016100060E088EB92E00E943C0300E010E08091E3
:10162000CA029091CB020E94E30440E06CEC8091EE
:10163000CA029091CB020E9490044091C40264E4DB
:101640008091CA029091CB020E9490048091C602C0
:10165000882309F442C0E091C502E9506EEE72E0C1
:10166000E33038F4F0E0EE0FFF1FE050FF4F6081F1
:1016700071818091C702882309F490C08091C402CF
:1016800081118CC08FB7F894809007029090080267
:10169000A0900902B0900A028FBF6B01770FEE088D
:1016A000FF088091CA029091CB020E943D048130D4
:1016B000A1F02FB7F8948091070290910802A091B1
:1016C0000902B0910A022FBF8C199D09AE09BF090A
:1016D00088159905AA05BB0520F3E091CA02F0918F
:1016E000CB02138615861486128611861086178201
:1016F0001682158214821382BE01665F7F4F80912D
:10170000CA029091CB020E94AA0581114EC060E0EE
:1017100070E08EEF92EC20E030E040E151E40E9476
:10172000990E20E030E040EA50E40E94410D20E0B4
:1017300030E040E052E40E94D00C6B017C014B0190
:101740005C0140E060E888EB92E00E94430686E39B
:1017500091E00E946006A7019601C701B6010E94B0
:10176000060F882309F481C08DE391E00E94600692
:1017700089E491E00E94600668EE73E080E090E00A
:101780000E940D010115110509F449CF0E94AC0119
:10179000882309F444CF0E94000041CF072E000C9B
:1017A000880B990B0E940D0198CF67E0CE010A9635
:1017B0000E94260499898913AACF8091CA02909128
:1017C000CB020E94E304882309F4A1CFBE016F5F1E
:1017D0007F4FCE010A960E941B05882309F497CFFC
:1017E00068E0CE0101960E942604998589138FCF67
:1017F0006A8170E0762F6627770F770F770F298140
:1018000048E0249F90011124262B372B8A858031B4
:10181000D1F4688570E08F81AB01481B5109CA0182
:101820009695982F8827979587950E940B0FCB0147
:101830004097B90153E0660F771F5A95E1F760783A
:101840009C01260F371F213854EE35070CF45FCF6B
:10185000B901330F880B990B0E94E40D20E030E0B2
:1018600040E05CE30E94990E56CF26013701E894D0
:1018700077F82FEF3FEF4FE75FE7C301B2010E9418
:10188000060F81110DC02FEF3FEF4FE75FE7C30158
:10189000B2010E943C0D18161CF481E491E066CF61
:1018A0002FEF3FEF4FE75FE4C701B6010E94940EB0
:1018B00018161CF485E491E059CF2FEF3FEF4FE766
:1018C0005FECC701B6010E943C0D87FDF3CF20E01D
:1018D00030E0A901C701B6010E943C0D87FF0CC092
:1018E00041E06DE288EB92E00E9443064601570119
:1018F000B7FAB094B7F8B0942AE037ED43EA5BE367
:10190000C501B4010E94D00C4B015C010E94B30DD3
:101910006B017C010E94E20D9B01AC01C501B40189
:101920000E94CF0C4B015C014AE0C701B6010E9446
:101930006D0641E06EE288EB92E00E94430620E0F3
:1019400030E040E251E4C501B4010E94990E4B0120
:101950005C010E94B30D6B01F12CE12C4AE0C70140
:10196000B6010E946D06C701B6010E94E20D9B01FF
:10197000AC01C501B4010E94CF0C20E030E040E290
:1019800051E40E94990E0E94B30D90E080E04AE07D
:101990000E946D06EDCE1D3008F08ECDA8CD5058BA
:1019A000BB27AA270E94E70C0C945A0E0E944C0EEB
:1019B00038F00E94530E20F039F49F3F19F426F4BA
:1019C0000C94490E0EF4E095E7FB0C94430EE92FBE
:1019D0000E946B0E58F3BA176207730784079507C6
:1019E00020F079F4A6F50C948D0E0EF4E0950B2EF4
:1019F000BA2FA02D0B01B90190010C01CA01A00161
:101A00001124FF27591B99F0593F50F4503E68F1BB
:101A10001A16F040A22F232F342F4427585FF3CFFC
:101A2000469537952795A795F0405395C9F77EF4CD
:101A30001F16BA0B620B730B840BBAF09150A1F016
:101A4000FF0FBB1F661F771F881FC2F70EC0BA0F9C
:101A5000621F731F841F48F4879577956795B79524
:101A6000F7959E3F08F0B0CF9395880F08F099271F
:101A7000EE0F9795879508950E941F0E08F481E058
:101A800008950E94550D0C945A0E0E94530E58F062
:101A90000E944C0E40F029F45F3F29F00C94430E55
:101AA00051110C948E0E0C94490E0E946B0E68F32B
:101AB0009923B1F3552391F3951B550BBB27AA2707
:101AC00062177307840738F09F5F5F4F220F331F41
:101AD000441FAA1FA9F335D00E2E3AF0E0E832D009
:101AE00091505040E695001CCAF72BD0FE2F29D00C
:101AF000660F771F881FBB1F261737074807AB07DE
:101B0000B0E809F0BB0B802DBF01FF2793585F4F52
:101B10003AF09E3F510578F00C94430E0C948E0ED3
:101B20005F3FE4F3983ED4F3869577956795B79534
:101B3000F7959F5FC9F7880F911D9695879597F93F
:101B40000895E1E0660F771F881FBB1F62177307B8
:101B50008407BA0720F0621B730B840BBA0BEE1FCD
:101B600088F7E09508950E94730E88F09F5798F0CB
:101B7000B92F9927B751B0F0E1F0660F771F881F92
:101B8000991F1AF0BA95C9F714C0B13091F00E94AC
:101B90008D0EB1E008950C948D0E672F782F882755
:101BA000B85F39F0B93FCCF3869577956795B395D3
:101BB000D9F73EF490958095709561957F4F8F4F42
:101BC0009F4F0895E89409C097FB3EF49095809547
:101BD000709561957F4F8F4F9F4F9923A9F0F92FF3
:101BE00096E9BB279395F695879577956795B79571
:101BF000F111F8CFFAF4BB0F11F460FF1BC06F5F57
:101C00007F4F8F4F9F4F16C0882311F096E911C068
:101C1000772321F09EE8872F762F05C0662371F089
:101C200096E8862F70E060E02AF09A95660F771F9D
:101C3000881FDAF7880F9695879597F90895990F79
:101C40000008550FAA0BE0E8FEEF16161706E80786
:101C5000F907C0F012161306E407F50798F0621BA7
:101C6000730B840B950B39F40A2661F0232B242B7C
:101C7000252B21F408950A2609F4A140A6958FEF9B
:101C8000811D811D089597F99F6780E870E060E0ED
:101C900008959FEF80EC089500240A941616170605
:101CA00018060906089500240A941216130614064D
:101CB00005060895092E0394000C11F4882352F0B0
:101CC000BB0F40F4BF2B11F460FF04C06F5F7F4F68
:101CD0008F4F9F4F089557FD9058440F551F59F04F
:101CE0005F3F71F04795880F97FB991F61F09F3F09
:101CF00079F087950895121613061406551FF2CF32
:101D00004695F1DF08C0161617061806991FF1CF81
:101D100086957105610508940895E894BB276627A8
:101D20007727CB0197F908950E941F0E08F48FEFD3
:101D300008950E94AC0E0C945A0E0E944C0E38F07E
:101D40000E94530E20F0952311F00C94430E0C9436
:101D5000490E11240C948E0E0E946B0E70F3959F09
:101D6000C1F3950F50E0551F629FF001729FBB2792
:101D7000F00DB11D639FAA27F00DB11DAA1F649F2E
:101D80006627B00DA11D661F829F2227B00DA11DE1
:101D9000621F739FB00DA11D621F839FA00D611D67
:101DA000221F749F3327A00D611D231F849F600D88
:101DB000211D822F762F6A2F11249F5750409AF0B1
:101DC000F1F088234AF0EE0FFF1FBB1F661F771F3D
:101DD000881F91505040A9F79E3F510580F00C9408
:101DE000430E0C948E0E5F3FE4F3983ED4F3869539
:101DF00077956795B795F795E7959F5FC1F7FE2BA8
:101E0000880F911D9695879597F908950E941F0E4A
:101E1000880B990B089597FB072E16F4009407D0B2
:101E200077FD09D00E94410F07FC05D03EF4909544
:101E300081959F4F0895709561957F4F0895A1E218
:101E40001A2EAA1BBB1BFD010DC0AA1FBB1FEE1F34
:101E5000FF1FA217B307E407F50720F0A21BB30B7F
:101E6000E40BF50B661F771F881F991F1A9469F7FB
:101E700060957095809590959B01AC01BD01CF0157
:101E80000895AA1BBB1B51E107C0AA1FBB1FA617C1
:101E9000B70710F0A61BB70B881F991F5A95A9F713
:101EA00080959095BC01CD010895EE0FFF1F059020
:101EB000F491E02D0994F894FFCF5E00BC00770107
:101EC00000000000E20142016F012F02A0017E012B
:101ED0009201000000000D03E0022304B602D902C3
:101EE000C602B702000000005A06420123044F0256
:101EF00054656D703A20006E616E00696E66006F09
:061F000076660020460099
:107E0000112484B714BE81FFF0D085E080938100F7
:107E100082E08093C00088E18093C10086E0809377
:107E2000C20080E18093C4008EE0C9D0259A86E02C
:107E300020E33CEF91E0309385002093840096BBD3
:107E4000B09BFECF1D9AA8958150A9F7CC24DD24C4
:107E500088248394B5E0AB2EA1E19A2EF3E0BF2EE7
:107E6000A2D0813461F49FD0082FAFD0023811F036
:107E7000013811F484E001C083E08DD089C08234E0
:107E800011F484E103C0853419F485E0A6D080C0E4
:107E9000853579F488D0E82EFF2485D0082F10E0AE
:107EA000102F00270E291F29000F111F8ED06801E7
:107EB0006FC0863521F484E090D080E0DECF843638
:107EC00009F040C070D06FD0082F6DD080E0C81688
:107ED00080E7D80618F4F601B7BEE895C0E0D1E017
:107EE00062D089930C17E1F7F0E0CF16F0E7DF06D8
:107EF00018F0F601B7BEE89568D007B600FCFDCFD4
:107F0000A601A0E0B1E02C9130E011968C91119780
:107F100090E0982F8827822B932B1296FA010C0160
:107F200087BEE89511244E5F5F4FF1E0A038BF0790
:107F300051F7F601A7BEE89507B600FCFDCF97BE46
:107F4000E89526C08437B1F42ED02DD0F82E2BD052
:107F50003CD0F601EF2C8F010F5F1F4F84911BD097
:107F6000EA94F801C1F70894C11CD11CFA94CF0C13
:107F7000D11C0EC0853739F428D08EE10CD085E9AC
:107F80000AD08FE07ACF813511F488E018D01DD067
:107F900080E101D065CF982F8091C00085FFFCCF94
:107FA0009093C60008958091C00087FFFCCF809118
:107FB000C00084FD01C0A8958091C6000895E0E648
:107FC000F0E098E1908380830895EDDF803219F02E
:107FD00088E0F5DFFFCF84E1DECF1F93182FE3DFCA
:107FE0001150E9F7F2DF1F91089580E0E8DFEE27F6
:047FF000FF270994CA
:027FFE00040479
:00000001FF
