:020000040000FA
:100000000C9463000C948B000C948B000C948B006C
:100010000C948B000C948B000C948B000C94B10707
:100020000C948B000C948B000C948B000C94330874
:100030000C948B000C948B000C948B000C948B0014
:100040000C9467070C948B000C948B000C948B0021
:100050000C948B000C948B000C948B000C948B00F4
:100060000C94EF080C948B00020000000024002781
:10007000002A0000000000250028002B00000000DE
:1000800000230026002900040404040404040402DC
:100090000202020202030303030303010204081025
:1000A00020408001020408102001020408102000F2
:1000B0000000080002010000030407000000000027
:1000C000000000000E0A11241FBECFEFD8E0DEBFF3
:1000D000CDBF11E0A0E0B1E0EAECFCE102C0059088
:1000E0000D92AA3AB107D9F723E0AAEAB1E001C01C
:1000F0001D92A533B207E1F710E0C3E6D0E004C0DB
:100100002197FE010E94540EC236D107C9F70E9402
:100110009F0A0C94630E0C9400008F929F92AF92F2
:10012000BF92FF920F931F93CF93DF93F090320310
:100130002BE02F1508F44CC02091340308E512E0A1
:10014000021B110927FD1395000F111F000F111F2E
:1001500020913303C8E8D0E0C21BD10927FDD39515
:10016000CC0FDD1FCC0FDD1F4E010D2E000CAA0899
:10017000BB089801012E000C440B550B28193909B6
:100180004A095B09DC010E940F0E24EB30E040E0DD
:1001900050E00E94E50D820E931EA41EB51E8C1623
:1001A0009D062CF0E801801691060CF4E4012297DC
:1001B000CC0FDD1F2FB7F8948F2D90E0FC01EE0FD0
:1001C000FF1FE80FF91FEE56FD4FD283C1832FBFEB
:1001D000DF91CF911F910F91FF90BF90AF909F90B3
:1001E0008F90089596E0899FD0011124A954BD4FA6
:1001F00090967C936E935F9791E091969C939197E4
:10020000E0912403F091250390912303992339F081
:10021000309751F0811108C08091D3020994309732
:1002200019F05C968C91FACF0895CF92DF92EF92FD
:10023000FF920F931F9396E0899FF0011124E954D8
:10024000FD4F11A2278D30A12130310551F178F0F9
:100250002230310509F451C02330310509F452C070
:100260001F910F91FF90EF90DF90CF90089566233C
:10027000B9F361E070E00E94F2002FB7F89480912A
:10028000820290918302A0918402B09185022FBFD7
:1002900080930F0390931003A0931103B093120364
:1002A000DFCF9FB7F894C0908202D0908302E09095
:1002B0008402F09085029FBF00910F0310911003FC
:1002C0002091110330911203C01AD10AE20AF30AF5
:1002D000009121031091220330E020E00C151D0550
:1002E0002E053F0550F462E070E01F910F91FF90E2
:1002F000EF90DF90CF900C94F2006111B1CF63E0EA
:1003000070E0F3CF70E060E0F0CF833081F028F44C
:10031000813099F08230A9F008958730A9F08830B3
:10032000C9F08430B1F4809180008F7D03C080914A
:1003300080008F7780938000089584B58F7784BD87
:10034000089584B58F7DFBCF8091B0008F77809327
:10035000B00008958091B0008F7DF9CFCF93DF93E7
:10036000282F30E0F901E155FF4F8491F901E5565E
:10037000FF4FD491F901E957FF4FC491CC23A1F06D
:1003800081110E948501EC2FF0E0EE0FFF1FE35872
:10039000FF4FA591B491EC91ED2381E090E009F439
:1003A00080E0DF91CF91089580E090E0FACF1F9335
:1003B000CF93DF93282F30E0F901E155FF4F84916F
:1003C000F901E556FF4FD491F901E957FF4FC49168
:1003D000CC23A9F0162F81110E948501EC2FF0E0AB
:1003E000EE0FFF1FED58FF4FA591B4918FB7F89412
:1003F000EC91111108C0D095DE23DC938FBFDF9103
:10040000CF911F910895DE2BF8CFCF93DF9390E02B
:10041000FC01E556FF4F249189579F4FFC018491C1
:100420008823C9F090E0880F991FFC01E759FF4F1E
:10043000A591B491FC01ED58FF4FC591D491611184
:100440000DC09FB7F8948C91209582238C9388815E
:10045000282328839FBFDF91CF910895623051F404
:100460009FB7F8943C91822F809583238C93E881E9
:100470002E2BEFCF8FB7F894EC912E2B2C938FBFB0
:10048000EACF3FB7F89480917E0290917F02A091CD
:100490008002B091810226B5A89B05C02F3F19F0BC
:1004A0000196A11DB11D3FBFBA2FA92F982F8827F4
:1004B000BC01CD01620F711D811D911D42E0660FCF
:1004C000771F881F991F4A95D1F708958F929F92A1
:1004D000AF92BF92CF92DF92EF92FF924B015C01FD
:1004E0000E9441026B017C010E9441026C197D094E
:1004F0008E099F09683E734081059105A8F321E0AC
:10050000821A9108A108B10888EEC80E83E0D81EAF
:10051000E11CF11C81149104A104B10429F7FF909E
:10052000EF90DF90CF90BF90AF909F908F90089505
:10053000862F642F0C940502862F642F0C94D7010C
:10054000862F0C94AE01089508954F925F926F929A
:100550007F928F929F92AF92BF92CF92DF92EF9253
:10056000FF920F931F93CF93DF9300D000D01F9281
:10057000CDB7DEB78B0129833A834B835C8390919F
:1005800000018917C9F09F3F09F4B1C00F900F9087
:100590000F900F900F90DF91CF911F910F91FF90CF
:1005A000EF90DF90CF90BF90AF909F908F907F9013
:1005B0006F905F904F900895E8E6F0E024912D83CE
:1005C00027FDE4CF61E00E9405022D814801B12C96
:1005D000A12C222301F1F12CE12C8D81823009F034
:1005E00001C14801570160E970ED83E090E0A70187
:1005F00098010E94E50D69017A0191E0C91AD108BC
:10060000E108F10883E02FEFC216D104E104F10400
:1006100009F00CF465C060E072E18AE790E0A501A2
:1006200094010E94E50D29013A0168E478EE81E029
:1006300090E0A50194010E94E50D69017A0181E035
:10064000C81AD108E108F1089D81992309F42CC149
:10065000923009F073C184E02FEFC216D104E10497
:10066000F104F1F1ECF164E274EF80E090E0A501B7
:1006700094010E94E50D69017A0181E0C81AD10850
:10068000E108F10885E02FEFC216D104E104F1047E
:1006900039F130F162E17AE780E090E0A501940160
:1006A0000E94E50D69017A0181E0C81AD108E108CC
:1006B000F10886E09FEFC916D104E104F10481F04E
:1006C0007CF0730162012AE0F594E794D794C79413
:1006D0002A95D1F721E0C21AD108E108F10887E094
:1006E0009091B100987F892B8093B10000C18093D5
:1006F0000001E8E6F0E094919D839F3F09F446CF26
:10070000913041F150F0923009F446C09D8197FD3F
:100710003DCF61E00E9405025ECF14BC15BC94B5CC
:10072000926094BD95B5916095BD282F30E0F90198
:10073000E957FF4FE491F0E0EE0FFF1FED58FF4F38
:1007400045915491F901E556FF4FE491E0935E0223
:100750001D8238CF1092800010928100909181000C
:1007600098609093810090918100916090938100B6
:10077000282F30E0F901E957FF4FE491F0E0EE0F48
:10078000FF1FED58FF4F45915491F901E556FF4F7A
:10079000E491E0935D0216CF1092B0001092B10088
:1007A0009091B00092609093B0009091B1009160F0
:1007B0009093B100282F30E0F901E957FF4FE49101
:1007C000F0E0EE0FFF1FED58FF4F4591549150930D
:1007D000680240936702F901E556FF4FE491E09308
:1007E0006902F0CE60E072E18AE790E0A70198012B
:1007F0000E94E50DDA01C9010197A109B10900972D
:1008000021E0A207B1056CF46C0191E02D8121304B
:1008100009F06DC080918100887F892B80938100D1
:1008200066C068E478EE81E090E0A70198010E943C
:10083000E50D69017A0181E0C81AD108E108F108E3
:1008400093E0E4CFD0928900C092880020935F02A9
:1008500030936002409361025093620280916F0076
:10086000826080936F0092CEC092B30020936A02A0
:1008700030936B0240936C0250936D028091700034
:1008800082608093700082CE730162019AE0F594D9
:10089000E794D794C7949A95D1F781E0C81AD10804
:1008A000E108F10895E01FC093E02FEFC216D104D4
:1008B000E104F104C1F0BCF062E17AE780E090E08D
:1008C000A50194010E94E50D69017A0191E0C91A20
:1008D000D108E108F1082FEFC216D104E104F104B8
:1008E00009F094F694E085B5887F892B85BDD80101
:1008F000AA0FBB1F29813A814B815C810E94040EA3
:1009000028EE33E040E050E00E94170E9D819130C8
:1009100009F498CF923009F4A7CF911137CEC7BC14
:100920002093630230936402409365025093660201
:1009300080916E00826080936E0028CE84E0A3CE0A
:10094000AF92BF92CF92DF92EF92FF920F931F93DD
:10095000CF93DF936C017B018B01040F151FEB011B
:100960005E01AE18BF08C017D10759F06991D601D2
:10097000ED91FC910190F081E02DC6010995892B44
:1009800079F7C501DF91CF911F910F91FF90EF9003
:10099000DF90CF90BF90AF90089508952091EB0124
:1009A000260F3327331F21323105ECF42091340216
:1009B000FC0190E080E0243069F082E00895A0918D
:1009C000EB012191AC0145535E4FA40FB52FB11D32
:1009D0002C930196861798F38091EB01680F609332
:1009E000EB0180E0089581E008951092340281E0E7
:1009F0008093330210920E0261E082E10E94D701DF
:100A000061E083E10E94D701E9EBF0E080818E7F15
:100A1000808380818D7F808388E48093B80085E423
:100A20008093BC000895CF93DF9391E09093CA0127
:100A30008823B9F0C091B800D091BA008091BC0071
:100A40008A7B8093BC0060E082E10E94D70160E075
:100A500083E10E94D7010E94F504D093BA00C093AD
:100A6000B800DF91CF9108950895E09175028091CB
:100A70007402E81730F4F0E0E655FE4F808190E014
:100A800008958FEF9FEF0895909175028091740201
:100A90002FEF3FEF981748F4E92FF0E0E655FE4FAF
:100AA000208130E09F5F90937502C9010895809185
:100AB000740290917502891B990B0895CF92DF9271
:100AC000EF92FF920F931F93CF93DF937C01CB01A3
:100AD0008A0120913A02222389F0EB016B01C40EB6
:100AE000D51ECC15DD0569F06991D701ED91FC911A
:100AF0000190F081E02DC7010995F3CF642F0E948A
:100B0000CE04C801DF91CF911F910F91FF90EF901C
:100B1000DF90CF900895CF93DF931F92CDB7DEB7CC
:100B2000698320913A022223F9F020917202203247
:100B300058F021E030E0FC013383228390E080E034
:100B40000F90DF91CF91089580917302E82FF0E02C
:100B5000E55CFD4F998190838F5F80937302809352
:100B6000720281E090E0ECCF61E0CE0101960E943C
:100B7000CE04F7CFCF92DF92EF92FF920F931F93A5
:100B8000CF93DF93FC01C48121E020933A02C0930C
:100B90005B0210927302109272028385682B86E8C2
:100BA00092E00E948B05D0917202D13208F092C07F
:100BB0000E9441026B017C0180913402811165C069
:100BC00082E08093340281E0809333028FEF809340
:100BD000320210923102D0933002ABE3B2E0E0E196
:100BE000F2E080E0D81385C010920F0280910F02CE
:100BF000CC0FC82BC0930F0280910E02813009F0F8
:100C00007CC010920E020E9441026B017C01809117
:100C10000F028093BB008091360290913702A09121
:100C20003802B0913902892B8A2B8B2B99F00E94C4
:100C30004102009136021091370220913802309122
:100C400039026C197D098E099F09061717072807B5
:100C50003907E0F18091BC0083FDD9CF85EC80930A
:100C6000BC000E9441026B017C0180913402823001
:100C700009F445C0809132028F3F61F180913202C8
:100C8000803241F18091320225C0809136029091EC
:100C90003702A0913802B0913902892B8A2B8B2B15
:100CA00009F48ACF0E944102009136021091370266
:100CB00020913802309139026C197D098E099F0903
:100CC000061717072807390708F076CF80913502F5
:100CD0000E941305109273021092720210923A024F
:100CE000DF91CF911F910F91FF90EF90DF90CF9008
:100CF00008959D9191938F5F75CF85EEB0CF8091D0
:100D0000360290913702A0913802B0913902892BB6
:100D10008A2B8B2B09F4A9CF0E9441020091360245
:100D20001091370220913802309139026C197D09F7
:100D30008E099F09061717072807390708F095CF6E
:100D4000C5CF90E080E00895FC0101900020E9F714
:100D50003197AF01481B590BBC0186E293E00C941C
:100D6000A0040F931F93CF938C01C62F0E94BA0546
:100D70006C2F6460C8010E94BA056C2F6B7FC8019C
:100D80000E94BA0583EC90E00197F1F7CF911F9193
:100D90000F9108950F931F93CF93DF938C01D62F5C
:100DA000C42F607F642B0E94B10680E1D89FB00100
:100DB00011246C2BC801DF91CF911F910F910C94DE
:100DC000B106CF93DF93CDB7DEB728970FB6F8946F
:100DD000DEBF0FBECDBF98E0E9E1F1E0DE01119684
:100DE00001900D929A95E1F790912E03961708F4D1
:100DF0006FEF262F30E0220F331F41E050E04C0F01
:100E00005D1F240F351FF9016081680F606840E0A5
:100E100086E293E028960FB6F894DEBF0FBECDBFF2
:100E2000DF91CF910C94CA0640E061E086E293E046
:100E30000E94CA068BE39FE10197F1F708950E9493
:100E4000140760E082E00E94E10689E491E00C94DE
:100E5000A40641E00E94CA0681E090E0089585ED75
:100E60008093BC008091360290913702A0913802A5
:100E7000B09139020796A11DB11D23E0B695A79543
:100E8000979587952A95D1F72091BC0024FD03C042
:100E900010923402089540913602509137026091C9
:100EA000380270913902452B462B472B69F3009786
:100EB000A105B10541F02AE22A95F1F700C001979A
:100EC000A109B109E1CF809135020C9413051F925D
:100ED0000F920FB60F9211242F933F938F939F93EE
:100EE000AF93BF938091820290918302A09184027C
:100EF000B091850230917D0223E0230F2D3758F504
:100F00000196A11DB11D20937D02809382029093D2
:100F10008302A0938402B093850280917E02909117
:100F20007F02A0918002B09181020196A11DB11DA6
:100F300080937E0290937F02A0938002B0938102FF
:100F4000BF91AF919F918F913F912F910F900FBEC5
:100F50000F901F90189526E8230F0296A11DB11D32
:100F6000D2CF1F920F920FB60F9211242F933F935F
:100F70004F935F936F937F938F939F93AF93BF93A1
:100F8000EF93FF9380916A0290916B02A0916C02A3
:100F9000B0916D02892B8A2B8B2BD1F19091690234
:100FA000E0916702F09168028081892780838091B7
:100FB0006A0290916B02A0916C02B0916D021816BA
:100FC00019061A061B069CF480916A0290916B0226
:100FD000A0916C02B0916D020197A109B1098093B3
:100FE0006A0290936B02A0936C02B0936D02FF9122
:100FF000EF91BF91AF919F918F917F916F915F9191
:101000004F913F912F910F900FBE0F901F90189509
:1010100080910001E8E6F0E0E4919FEF90930001F9
:10102000E13051F030F0E23069F060E00E94D70129
:10103000DECF10926E00F9CF90916F009D7F90935C
:101040006F00F3CF909170009D7F9093700091E0BE
:101050009093B0009091B100987F94609093B1000C
:101060001092B300E2CF1F920F920FB60F9211248D
:101070002F933F934F935F936F937F938F939F93A0
:10108000AF93BF93CF93DF93EF93FF9380915C0275
:10109000C091B602D0E087FF24C010928500109264
:1010A000840080915C028F5F80935C0280915C027F
:1010B000082E000C990B8C179D0724F480915C027C
:1010C0008C30C4F180918400909185000496803426
:1010D0009C4908F47AC08091840090918500049620
:1010E00076C080915C02082E000C990B8C179D072E
:1010F000C4F6E0915C028E2FEE0F990BFC01EE0F0F
:10110000FF1FE80FF91FEE56FD4F808186FFC9CF04
:10111000E0915C028E2FEE0F990BFC01EE0FFF1F8A
:10112000E80FF91FEE56FD4F808160E08F730E943B
:10113000D701B7CF2091840030918500E0915C0207
:101140008E2FEE0F990BFC01EE0FFF1FE80FF91F1A
:10115000EE56FD4F81819281820F931F90938900FB
:1011600080938800E0915C028E2FEE0F990BFC01BA
:10117000EE0FFF1FE80FF91FEE56FD4F808186FF2F
:1011800011C0E0915C028E2FEE0F990BFC01EE0F67
:10119000FF1FE80FF91FEE56FD4F808161E08F734E
:1011A0000E94D701FF91EF91DF91CF91BF91AF9155
:1011B0009F918F917F916F915F914F913F912F916F
:1011C0000F900FBE0F901F90189580E49CE99093AC
:1011D0008900809388008FEF80935C02E3CF1F9299
:1011E0000F920FB60F9211242F933F934F935F935B
:1011F0006F937F938F939F93AF93BF93EF93FF93DF
:101200008091B900887F803609F44AC0F0F58832B1
:1012100009F4A7C018F5803109F49BC0B8F48823FD
:1012200009F4F9C0883009F494C0FF91EF91BF919F
:10123000AF919F918F917F916F915F914F913F916E
:101240002F910F900FBE0F901F901895883109F4C1
:1012500088C0803251F78093320214C0803409F480
:101260009DC040F48033B9F38833F9F6809332029D
:1012700085ECB0C0803509F485C0883509F496C086
:10128000883499F60E942F07D0CF883909F48CC092
:1012900038F5883729F050F4883611F0803729F670
:1012A00083E08093340210920D0257C0883809F40D
:1012B0007BC0803919F0803809F0B7CF80910D02DA
:1012C000803208F071C0E0910D0281E08E0F8093B2
:1012D0000D028091BB00F0E0E351FE4F80833DC0E2
:1012E000803B39F0E0F4803A09F479C0883A09F09B
:1012F0009CCF84E0809334021092EC011092EB01B9
:10130000E0917002F091710209958091EB018111D9
:101310000FC081E08093EB011092CB0109C0803CAB
:1013200009F4A6CF883C09F4A3CF883B09F07DCF10
:10133000E091EC0181E08E0F8093EC01F0E0E55349
:10134000FE4F80818093BB009091EC018091EB0176
:1013500029C080910F028093BB0085EC8093BC0074
:1013600064CF9091310280913002981758F5E09146
:10137000310281E08E0F80933102F0E0E05FFD4F9B
:101380008081E9CFE091310281E08E0F80933102BC
:101390008091BB00F0E0E05FFD4F808390913102CF
:1013A000809130029817C8F285E8D8CFE0913102D9
:1013B00081E08E0F809331028091BB00F0E0E05F0E
:1013C000FD4F80838091330281115CCF81E0809357
:1013D0000E0284EA8093BC001092340226CF85EC82
:1013E0008093BC001092340280910D02803230F460
:1013F000E0910D02F0E0E351FE4F108260910D028A
:1014000070E0E0916E02F0916F028DEE91E009952F
:1014100010920D020ACF1092320234CF109289023C
:101420001092880288EE93E0A0E0B0E080938A02F8
:1014300090938B02A0938C02B0938D0285E291E091
:1014400090938702809386028091B6028C3008F0D8
:1014500072C091E0980F9093B6028093320390E0AF
:10146000FC01EE0FFF1FE80FF91FEE56FD4F88EB52
:101470009BE092838183109229031092280381E4D8
:1014800091E0909327038093260380E280932A03C0
:1014900080E180932F0382E0809330031092310328
:1014A0001092B9021092BD021092BC021092BE02BC
:1014B00087E391E09093B8028093B702E3EDF2E006
:1014C0001082148213821582369683E0EF30F8077B
:1014D000B9F785E091E090931A038093190381E0B6
:1014E00091E090931C0380931B0384E080931D0381
:1014F00080931E0389E091E0909318038093170373
:101500008AE090E09093200380931F0384EF91E0A2
:1015100090932203809321031092250310922403B9
:1015200010921303109214031092150310921603D5
:101530001092230308958FEF809332039CCFCF93B3
:10154000DF93CDB7DEB7A1970FB6F894DEBF0FBE1D
:10155000CDBF789484B5826084BD84B5816084BD3C
:1015600085B5826085BD85B5816085BD80916E0041
:10157000816080936E001092810080918100826072
:1015800080938100809181008160809381008091AF
:1015900080008160809380008091B100846080939E
:1015A000B1008091B00081608093B00080917A009A
:1015B000846080937A0080917A00826080937A00C0
:1015C00080917A00816080937A0080917A008068AF
:1015D00080937A001092C1001092750210927402EA
:1015E00010927302109272020E94F50483EA92E054
:1015F000909371028093700284EA92E090936F025C
:1016000080936E0210922B0380913003823018F089
:1016100098E090932B0380932E0362E370E080E0C8
:1016200090E00E9466026091310386E293E00E949E
:10163000BA0568EE73E080E090E00E94660260E325
:1016400086E293E00E94B1060BE416E4C80101971C
:10165000F1F760E386E293E00E94B106C8010197CA
:10166000F1F760E386E293E00E94B10683E592E041
:101670000197F1F760E286E293E00E94B106609183
:101680002B03606240E086E293E00E94CA0684E099
:1016900080932C0340E06CE086E293E00E94CA064F
:1016A0000E94140782E080932D0340E066E086E20A
:1016B00093E00E94CA0640E062E086E293E00E9466
:1016C000CA068BE39FE10197F1F788E0809331032D
:1016D00060E086E293E00E94BA050E941F0761E085
:1016E0008AE00E94050261E08CE00E94050261E050
:1016F0008BE00E940502809132038C3008F051C0CB
:1017000061E089E00E94050280913203282F30E0D9
:10171000F901EE0FFF1FE20FF31FEE56FD4F908110
:10172000907C9960908310923303109234032CE0E4
:10173000622F0E94480E829FB001112430E020E009
:10174000AB01420F531FFA01EE0FFF1FE40FF51F0D
:10175000EE56FD4F908196FD16C02F5F3F4F2C3007
:10176000310571F781110FC01092800082E08093E3
:1017700081001092850010928400B19A80916F00D0
:10178000826080936F00E09132038E2F90E0FC0125
:10179000EE0FFF1FE80FF91FEE56FD4F80818064AA
:1017A000808361E08AE00E94D701412C512C3201F4
:1017B000439440E0A42E40E0B42E51E05093230324
:1017C0008FB7F89440918202509183026091840215
:1017D000709185028FBF8091130390911403A091A3
:1017E0001503B0911603481B590B6A0B7B0B8091B4
:1017F0001F0390912003B0E0A0E084179507A6078F
:10180000B70708F01BC110E080911D03181760F4A2
:10181000E0911903F0911A03E10FF11D62E080815C
:101820000E9405021F5FF0CF312C80911E033816F5
:1018300008F061C0E32CF12CE0911B03F0911C0334
:10184000EE0DFF1D61E080810E940502E0911B0307
:10185000F0911C03EE0DFF1D60E080810E94D70116
:10186000D301C201032C04C0880F991FAA1FBB1FFC
:101870000A94D2F74C016C01C094D094212C809131
:101880001D03281608F5022D10E0E0911903F091D0
:101890001A03E00FF11F80810E94AE010C5F1F4F01
:1018A000000F111FF801E954FD4F892B41F480818D
:1018B000918188299929918380832394E0CF808125
:1018C00091818C219D21F7CFE0911B03F0911C03A6
:1018D000EE0DFF1D61E080810E94D70180911B0306
:1018E00090911C03E80EF91E60E0F70180810E94D0
:1018F000050233949ACF07EB12E07801F701878D48
:1019000090A1892B31F4148E8FEF9FEF968F858FE6
:1019100011A296E0E90EF11CE3EFEE16E2E0FE06FE
:1019200069F7912C80911D03981608F053C0812C03
:10193000C92CD12CCC0CDD1CC60181549D4F6C01EF
:1019400020911E03821608F043C0F6016081718168
:10195000082C02C0769567950A94E2F7929E900152
:101960001124280D311DE7EBF2E080E0458D568D06
:101970002417350709F427C18F5F36968A30B1F7EF
:1019800060FF24C0E7EBF2E090E080E0448D41117D
:1019900018C0E0911703F0911803E20FF31F408184
:1019A00056E0589FF001599FF00D1124E954FD4F66
:1019B000448F368F258F10A2178E61E00E9415018B
:1019C00005C0019636968A30910501F78394B8CF09
:1019D0009394A8CF80E0F80191A19111892F0A5F1B
:1019E0001F4FE016F106B9F79FB7F89440918202B5
:1019F0005091830260918402709185029FBF409351
:101A000013035093140360931503709316038823F4
:101A1000A9F08091D802882389F08091D602909114
:101A2000D702019759F41091D30211110AC0A114E1
:101A3000B10409F4C2CE0E940000BFCE109223036D
:101A4000F6CF80917B0261E0895F0E94E10685E527
:101A500091E00E94A40664E670E080E090E00E94BD
:101A6000660280917B0290917C02FC01EA58FD4F56
:101A70001083019684309105A1F090937C028093AD
:101A80007B0224E630E040E050E068EE73E08BE05B
:101A90000E94A50264E670E080E090E00E94660289
:101AA000C6CF10927C0210927B0267E571E086E758
:101AB00092E00E945A0E892B09F067C00E94140719
:101AC0008CE591E00E94A40661E080E00E94E106BE
:101AD00085E691E00E94A40660E08AE00E94D701BA
:101AE00061E08CE00E94D70110E000E028EC30E0DB
:101AF00040E050E0B8018BE00E94A50268EC70E085
:101B000080E090E00E94660208531F4F003BF4E023
:101B10001F0761F790E080E00E948D0060ED77E0A4
:101B200080E090E00E9466020E94140782E791E044
:101B30000E94A40615E361E084E00E94E10619A278
:101B400018A3CE0180960E94A40661E086E00E9460
:101B5000E10683E891E00E94A40668EE73E080E06D
:101B600090E00E9466021150103329F760E08CE08B
:101B70000E94D70161E08AE00E94D7018AE590E0E7
:101B80000E948D000E941F077CCF0E9414078BE8E3
:101B900091E00E94A40661E080E00E94E1068AE9EB
:101BA00091E00E94A40624EF31E040E050E064E6BA
:101BB00070E08BE00E94A50268EB7BE080E090E0A3
:101BC0000E946602DFCF6170F9CE052E97FB1EF4EE
:101BD00000940E94FC0D57FD07D00E94170E07FCD1
:101BE00003D04EF40C94FC0D509540953095219502
:101BF0003F4F4F4F5F4F0895909580957095619539
:101C00007F4F8F4F9F4F08950E94390EA59F900DD3
:101C1000B49F900DA49F800D911D11240895B7FFCE
:101C20000C94040E0E94040E821B930B0895A1E2F3
:101C30001A2EAA1BBB1BFD010DC0AA1FBB1FEE1F46
:101C4000FF1FA217B307E407F50720F0A21BB30B91
:101C5000E40BF50B661F771F881F991F1A9469F70D
:101C600060957095809590959B01AC01BD01CF0169
:101C70000895A29FB001B39FC001A39F700D811D65
:101C80001124911DB29F700D811D1124911D089585
:101C9000991B79E004C0991F961708F0961B881FBE
:101CA0007A95C9F780950895EE0FFF1F0590F4917E
:101CB000E02D0994FB01DC018D9101908019011048
:101CC000D9F3990B0895F894FFCFFF050607080193
:101CD0000203043132334134353642373839432A2E
:101CE0003023440000400014005400000000008B2A
:101CF000055E05A1063405570544053505000000BD
:101D00000098029C02A002000000002907A004A184
:101D100006CD04454E54455220434F44453A002ACF
:101D2000003939393900535543434553532C004446
:101D30004F4F52204953204F50454E00444F4F5271
:101D400020434C4F53455320494E2E2E007365635C
:101D50006F6E6473004143434553532044454E49DD
:101D600045442100434F444520494E434F5252457C
:041D700043540000D8
:107E0000112484B714BE81FFF0D085E080938100F7
:107E100082E08093C00088E18093C10086E0809377
:107E2000C20080E18093C4008EE0C9D0259A86E02C
:107E300020E33CEF91E0309385002093840096BBD3
:107E4000B09BFECF1D9AA8958150A9F7CC24DD24C4
:107E500088248394B5E0AB2EA1E19A2EF3E0BF2EE7
:107E6000A2D0813461F49FD0082FAFD0023811F036
:107E7000013811F484E001C083E08DD089C08234E0
:107E800011F484E103C0853419F485E0A6D080C0E4
:107E9000853579F488D0E82EFF2485D0082F10E0AE
:107EA000102F00270E291F29000F111F8ED06801E7
:107EB0006FC0863521F484E090D080E0DECF843638
:107EC00009F040C070D06FD0082F6DD080E0C81688
:107ED00080E7D80618F4F601B7BEE895C0E0D1E017
:107EE00062D089930C17E1F7F0E0CF16F0E7DF06D8
:107EF00018F0F601B7BEE89568D007B600FCFDCFD4
:107F0000A601A0E0B1E02C9130E011968C91119780
:107F100090E0982F8827822B932B1296FA010C0160
:107F200087BEE89511244E5F5F4FF1E0A038BF0790
:107F300051F7F601A7BEE89507B600FCFDCF97BE46
:107F4000E89526C08437B1F42ED02DD0F82E2BD052
:107F50003CD0F601EF2C8F010F5F1F4F84911BD097
:107F6000EA94F801C1F70894C11CD11CFA94CF0C13
:107F7000D11C0EC0853739F428D08EE10CD085E9AC
:107F80000AD08FE07ACF813511F488E018D01DD067
:107F900080E101D065CF982F8091C00085FFFCCF94
:107FA0009093C60008958091C00087FFFCCF809118
:107FB000C00084FD01C0A8958091C6000895E0E648
:107FC000F0E098E1908380830895EDDF803219F02E
:107FD00088E0F5DFFFCF84E1DECF1F93182FE3DFCA
:107FE0001150E9F7F2DF1F91089580E0E8DFEE27F6
:047FF000FF270994CA
:027FFE00040479
:00000001FF
