:020000040000FA
:100000000C9462000C948A000C948A000C948A0070
:100010000C948A000C948A000C948A000C948A0038
:100020000C948A000C948A000C948A000C948A0028
:100030000C948A000C948A000C948A000C948A0018
:100040000C942C020C948A000C948A000C948A0064
:100050000C948A000C948A000C948A000C948A00F8
:100060000C948A000C948A000000000023002600F3
:10007000290000000000240027002A0000000000E2
:10008000250028002B0004040404040404040202D4
:100090000202020203030303030301020408102007
:1000A0004080010204081020010204081020000012
:1000B0000008000201000003040700000000000027
:1000C0000000D80211241FBECFEFD8E0DEBFCDBFA5
:1000D00011E0A0E0B1E0E2E4F6E002C005900D928C
:1000E000A830B107D9F721E0A8E0B1E001C01D9226
:1000F000A134B207E1F710E0C2E6D0E004C02197D6
:10010000FE010E941903C136D107C9F70E94760289
:100110000C941F030C940000833081F028F481308C
:1001200099F08230A9F008958730A9F08830C9F09D
:100130008430B1F4809180008F7D03C08091800075
:100140008F7780938000089584B58F7784BD08955C
:1001500084B58F7DFBCF8091B0008F778093B00006
:1001600008958091B0008F7DF9CF1F93CF93DF93D7
:10017000282F30E0F901E255FF4F8491F901E6564E
:10018000FF4FD491F901EA57FF4FC491CC23A9F056
:10019000162F81110E948C00EC2FF0E0EE0FFF1F54
:1001A000E458FF4FA591B4918FB7F894EC911111D9
:1001B00008C0D095DE23DC938FBFDF91CF911F91D4
:1001C0000895DE2BF8CFCF93DF9390E0FC01E65645
:1001D000FF4F24918A579F4FFC0184918823D1F0CF
:1001E00090E0880F991FFC01EE58FF4FA591B49144
:1001F000FC01E458FF4FC591D49161110EC09FB727
:10020000F8948C91E22FE0958E238C932881E22341
:10021000E8839FBFDF91CF9108958FB7F894EC9159
:10022000E22BEC938FBFF6CF0F931F93FC012FB7F8
:10023000F89480913D0190913E01A0913F01B091D1
:1002400040012FBF2285338521303105F9F44485E3
:100250005585668577858C019D01041B150B260B42
:10026000370B428153816481758104171507260776
:10027000370758F11386128684879587A687B78734
:1002800060E080811F910F910C94B500232BE9F45D
:1002900044855585668577858C019D01041B150B6A
:1002A000260B370B4681578160857185041715072A
:1002B0002607370750F021E030E033872287848714
:1002C0009587A687B78761E0DCCF1F910F910895CE
:1002D000CF92DF92EF92FF920F931F93CF93DF9312
:1002E000EC018C01000F111FF801EC5FFE4F208123
:1002F00031813327F901E255FF4F8491F901E65628
:10030000FF4FE490F901EA57FF4FF490FF2009F402
:100310008DC081110E948C00EF2DF0E0EE0FFF1FC9
:10032000E859FF4FA591B491EC91EE2291E080E065
:1003300009F490E0E92EF82EF801EC5EFE4F2081E2
:100340003181CE01880F991F880F991F2E153F0507
:1003500091F02FB7F89440913D0150913E0160918A
:100360003F01709140012FBFFC01E45FFE4F4083CD
:100370005183628373832FB7F89440913D0150916C
:100380003E0160913F01709140012FBF845F9E4FFD
:10039000FC0180819181A281B381481B590B6A0BBA
:1003A0007B0BCE01885F9E4F6C0146305105610585
:1003B000710508F1FE01E65FFE4F80818E151F0476
:1003C000D1F0D6019C9181E0E114F10409F480E0C0
:1003D0008083E114F10479F091112BC081E0F601E2
:1003E0008083CE0134E0880F991F3A95E1F7885E4B
:1003F0009E4F0E941401F801EC5EFE4FF182E082F4
:10040000F60180818823F9F0CE0124E0880F991F3E
:100410002A95E1F7885E9E4FDF91CF911F910F9152
:10042000FF90EF90DF90CF900C941401F12CE12C11
:1004300083CFD6011C9260E0F801E050FF4F80812D
:100440000E94B500D8CFDF91CF911F910F91FF90FF
:10045000EF90DF90CF9008951F920F920FB60F92FA
:1004600011242F933F938F939F93AF93BF938091CA
:100470003D0190913E01A0913F01B091400130912A
:100480003C0123E0230F2D3758F50196A11DB11D26
:1004900020933C0180933D0190933E01A0933F0146
:1004A000B09340018091380190913901A0913A01B7
:1004B000B0913B010196A11DB11D8093380190932D
:1004C0003901A0933A01B0933B01BF91AF919F9145
:1004D0008F913F912F910F900FBE0F901F90189505
:1004E00026E8230F0296A11DB11DD2CF789484B5C2
:1004F000826084BD84B5816084BD85B5826085BD20
:1005000085B5816085BD80916E00816080936E00AD
:10051000109281008091810082608093810080919F
:100520008100816080938100809180008160809350
:1005300080008091B10084608093B1008091B00010
:1005400081608093B00080917A00846080937A000B
:1005500080917A00826080937A0080917A00816035
:1005600080937A0080917A00806880937A0010925C
:10057000C10060E089E00E94E30061E08AE00E943F
:10058000E30060E086E00E94E30061E085E00E9415
:10059000E300C0E0D0E090E080E00E94680181E0EC
:1005A00090E00E9468012097B1F30E940000F3CF11
:1005B000CF93DF93C8E1D1E08AE090E0998388830C
:1005C00061E00E94E30084EF91E0A0E0B0E08A8364
:1005D0009B83AC83BD838CE494E0A0E0B0E08E8389
:1005E0009F83A887B9871B861A861C861D861E8650
:1005F0001F8685E090E0998B888B61E00E94E30084
:100600008CED95E0A0E0B0E08A8B9B8BAC8BBD8B32
:1006100084E398E0A0E0B0E08E8B9F8BA88FB98F29
:100620001B8E1A8E1C8E1D8E1E8E1F8EDF91CF91FB
:100630000895EE0FFF1F0590F491E02D0994F894B2
:0A064000FFCF0A00050009000600C4
:107E0000112484B714BE81FFF0D085E080938100F7
:107E100082E08093C00088E18093C10086E0809377
:107E2000C20080E18093C4008EE0C9D0259A86E02C
:107E300020E33CEF91E0309385002093840096BBD3
:107E4000B09BFECF1D9AA8958150A9F7CC24DD24C4
:107E500088248394B5E0AB2EA1E19A2EF3E0BF2EE7
:107E6000A2D0813461F49FD0082FAFD0023811F036
:107E7000013811F484E001C083E08DD089C08234E0
:107E800011F484E103C0853419F485E0A6D080C0E4
:107E9000853579F488D0E82EFF2485D0082F10E0AE
:107EA000102F00270E291F29000F111F8ED06801E7
:107EB0006FC0863521F484E090D080E0DECF843638
:107EC00009F040C070D06FD0082F6DD080E0C81688
:107ED00080E7D80618F4F601B7BEE895C0E0D1E017
:107EE00062D089930C17E1F7F0E0CF16F0E7DF06D8
:107EF00018F0F601B7BEE89568D007B600FCFDCFD4
:107F0000A601A0E0B1E02C9130E011968C91119780
:107F100090E0982F8827822B932B1296FA010C0160
:107F200087BEE89511244E5F5F4FF1E0A038BF0790
:107F300051F7F601A7BEE89507B600FCFDCF97BE46
:107F4000E89526C08437B1F42ED02DD0F82E2BD052
:107F50003CD0F601EF2C8F010F5F1F4F84911BD097
:107F6000EA94F801C1F70894C11CD11CFA94CF0C13
:107F7000D11C0EC0853739F428D08EE10CD085E9AC
:107F80000AD08FE07ACF813511F488E018D01DD067
:107F900080E101D065CF982F8091C00085FFFCCF94
:107FA0009093C60008958091C00087FFFCCF809118
:107FB000C00084FD01C0A8958091C6000895E0E648
:107FC000F0E098E1908380830895EDDF803219F02E
:107FD00088E0F5DFFFCF84E1DECF1F93182FE3DFCA
:107FE0001150E9F7F2DF1F91089580E0E8DFEE27F6
:047FF000FF270994CA
:027FFE00040479
:00000001FF
